{
  "contractName": "BoardReply",
  "abi": [
    {
      "constant": false,
      "inputs": [
        {
          "name": "_sender",
          "type": "address"
        },
        {
          "name": "_title",
          "type": "string"
        },
        {
          "name": "_content",
          "type": "string"
        }
      ],
      "name": "writePost",
      "outputs": [],
      "payable": false,
      "stateMutability": "nonpayable",
      "type": "function"
    },
    {
      "constant": true,
      "inputs": [
        {
          "name": "_index",
          "type": "uint256"
        }
      ],
      "name": "getPost",
      "outputs": [
        {
          "name": "",
          "type": "string"
        },
        {
          "name": "",
          "type": "string"
        },
        {
          "name": "",
          "type": "uint32"
        },
        {
          "name": "",
          "type": "uint32"
        },
        {
          "name": "",
          "type": "uint256"
        }
      ],
      "payable": false,
      "stateMutability": "view",
      "type": "function"
    },
    {
      "constant": false,
      "inputs": [
        {
          "name": "_sender",
          "type": "address"
        },
        {
          "name": "_index",
          "type": "uint256"
        }
      ],
      "name": "likePost",
      "outputs": [],
      "payable": false,
      "stateMutability": "nonpayable",
      "type": "function"
    },
    {
      "constant": true,
      "inputs": [
        {
          "name": "_postIndex",
          "type": "uint256"
        }
      ],
      "name": "existPost",
      "outputs": [
        {
          "name": "isExist",
          "type": "bool"
        }
      ],
      "payable": false,
      "stateMutability": "view",
      "type": "function"
    },
    {
      "constant": true,
      "inputs": [
        {
          "name": "_userAddress",
          "type": "address"
        }
      ],
      "name": "getUser",
      "outputs": [
        {
          "name": "",
          "type": "uint32"
        },
        {
          "name": "",
          "type": "string"
        },
        {
          "name": "",
          "type": "uint256"
        }
      ],
      "payable": false,
      "stateMutability": "view",
      "type": "function"
    },
    {
      "constant": false,
      "inputs": [],
      "name": "renounceOwnership",
      "outputs": [],
      "payable": false,
      "stateMutability": "nonpayable",
      "type": "function"
    },
    {
      "constant": true,
      "inputs": [],
      "name": "owner",
      "outputs": [
        {
          "name": "",
          "type": "address"
        }
      ],
      "payable": false,
      "stateMutability": "view",
      "type": "function"
    },
    {
      "constant": true,
      "inputs": [],
      "name": "getUserCount",
      "outputs": [
        {
          "name": "",
          "type": "uint256"
        }
      ],
      "payable": false,
      "stateMutability": "view",
      "type": "function"
    },
    {
      "constant": true,
      "inputs": [],
      "name": "getPostCount",
      "outputs": [
        {
          "name": "",
          "type": "uint256"
        }
      ],
      "payable": false,
      "stateMutability": "view",
      "type": "function"
    },
    {
      "constant": true,
      "inputs": [
        {
          "name": "_userAddress",
          "type": "address"
        }
      ],
      "name": "existUser",
      "outputs": [
        {
          "name": "isExist",
          "type": "bool"
        }
      ],
      "payable": false,
      "stateMutability": "view",
      "type": "function"
    },
    {
      "constant": false,
      "inputs": [
        {
          "name": "_newOwner",
          "type": "address"
        }
      ],
      "name": "transferOwnership",
      "outputs": [],
      "payable": false,
      "stateMutability": "nonpayable",
      "type": "function"
    },
    {
      "constant": false,
      "inputs": [
        {
          "name": "_sender",
          "type": "address"
        },
        {
          "name": "_index",
          "type": "uint256"
        }
      ],
      "name": "dislikePost",
      "outputs": [],
      "payable": false,
      "stateMutability": "nonpayable",
      "type": "function"
    },
    {
      "constant": true,
      "inputs": [
        {
          "name": "_userIndex",
          "type": "uint256"
        }
      ],
      "name": "getUserByIndex",
      "outputs": [
        {
          "name": "",
          "type": "uint32"
        },
        {
          "name": "",
          "type": "string"
        },
        {
          "name": "",
          "type": "uint256"
        }
      ],
      "payable": false,
      "stateMutability": "view",
      "type": "function"
    },
    {
      "anonymous": false,
      "inputs": [],
      "name": "OnReplied",
      "type": "event"
    },
    {
      "anonymous": false,
      "inputs": [
        {
          "indexed": false,
          "name": "_title",
          "type": "string"
        },
        {
          "indexed": false,
          "name": "_content",
          "type": "string"
        }
      ],
      "name": "OnWritten",
      "type": "event"
    },
    {
      "anonymous": false,
      "inputs": [
        {
          "indexed": false,
          "name": "count",
          "type": "uint256"
        }
      ],
      "name": "OnLiked",
      "type": "event"
    },
    {
      "anonymous": false,
      "inputs": [
        {
          "indexed": false,
          "name": "count",
          "type": "uint256"
        }
      ],
      "name": "OnDisliked",
      "type": "event"
    },
    {
      "anonymous": false,
      "inputs": [
        {
          "indexed": true,
          "name": "previousOwner",
          "type": "address"
        }
      ],
      "name": "OwnershipRenounced",
      "type": "event"
    },
    {
      "anonymous": false,
      "inputs": [
        {
          "indexed": true,
          "name": "previousOwner",
          "type": "address"
        },
        {
          "indexed": true,
          "name": "newOwner",
          "type": "address"
        }
      ],
      "name": "OwnershipTransferred",
      "type": "event"
    },
    {
      "constant": true,
      "inputs": [
        {
          "name": "_postId",
          "type": "uint256"
        },
        {
          "name": "_index",
          "type": "uint256"
        }
      ],
      "name": "getReplyFromPost",
      "outputs": [
        {
          "name": "",
          "type": "string"
        },
        {
          "name": "",
          "type": "uint32"
        },
        {
          "name": "",
          "type": "uint32"
        },
        {
          "name": "",
          "type": "uint256"
        }
      ],
      "payable": false,
      "stateMutability": "view",
      "type": "function"
    },
    {
      "constant": true,
      "inputs": [
        {
          "name": "_replyId",
          "type": "uint256"
        },
        {
          "name": "_index",
          "type": "uint256"
        }
      ],
      "name": "getReplyFromReply",
      "outputs": [
        {
          "name": "",
          "type": "string"
        },
        {
          "name": "",
          "type": "uint32"
        },
        {
          "name": "",
          "type": "uint32"
        },
        {
          "name": "",
          "type": "uint256"
        }
      ],
      "payable": false,
      "stateMutability": "view",
      "type": "function"
    },
    {
      "constant": true,
      "inputs": [
        {
          "name": "_postId",
          "type": "uint256"
        }
      ],
      "name": "getReplyCountFromPost",
      "outputs": [
        {
          "name": "",
          "type": "uint256"
        }
      ],
      "payable": false,
      "stateMutability": "view",
      "type": "function"
    },
    {
      "constant": true,
      "inputs": [
        {
          "name": "_replyId",
          "type": "uint256"
        }
      ],
      "name": "getReplyCountFromReply",
      "outputs": [
        {
          "name": "",
          "type": "uint256"
        }
      ],
      "payable": false,
      "stateMutability": "view",
      "type": "function"
    },
    {
      "constant": false,
      "inputs": [
        {
          "name": "_sender",
          "type": "address"
        },
        {
          "name": "_postId",
          "type": "uint256"
        },
        {
          "name": "_content",
          "type": "string"
        }
      ],
      "name": "writeReplyToPost",
      "outputs": [],
      "payable": false,
      "stateMutability": "nonpayable",
      "type": "function"
    },
    {
      "constant": false,
      "inputs": [
        {
          "name": "_sender",
          "type": "address"
        },
        {
          "name": "_replyId",
          "type": "uint256"
        },
        {
          "name": "_content",
          "type": "string"
        }
      ],
      "name": "writeReplyToReply",
      "outputs": [],
      "payable": false,
      "stateMutability": "nonpayable",
      "type": "function"
    }
  ],
  "bytecode": "0x6080604052336000806101000a81548173ffffffffffffffffffffffffffffffffffffffff021916908373ffffffffffffffffffffffffffffffffffffffff16021790555061218b806100536000396000f300608060405260043610610107576000357c0100000000000000000000000000000000000000000000000000000000900463ffffffff1680631e4462181461010c57806323cb9f4d146101db5780632403df84146102b857806340731c24146102f95780634835152914610438578063497a996814610485578063498122ff146105185780636b3d91c91461055d5780636f77926b146105f0578063715018a6146106c65780638da5cb5b146106dd5780639aba355f14610734578063b5cb15f714610811578063bcc954071461083c578063e42954d914610867578063e964ed3d146108c2578063f2fde38b14610903578063fa00eb8d14610946578063ff5d32fe14610993575b600080fd5b34801561011857600080fd5b506101d9600480360381019080803573ffffffffffffffffffffffffffffffffffffffff169060200190929190803590602001908201803590602001908080601f0160208091040260200160405190810160405280939291908181526020018383808284378201915050505050509192919290803590602001908201803590602001908080601f0160208091040260200160405190810160405280939291908181526020018383808284378201915050505050509192919290505050610a53565b005b3480156101e757600080fd5b506102106004803603810190808035906020019092919080359060200190929190505050610d05565b60405180806020018563ffffffff1663ffffffff1681526020018463ffffffff1663ffffffff168152602001838152602001828103825286818151815260200191508051906020019080838360005b8381101561027a57808201518184015260208101905061025f565b50505050905090810190601f1680156102a75780820380516001836020036101000a031916815260200191505b509550505050505060405180910390f35b3480156102c457600080fd5b506102e360048036038101908080359060200190929190505050610ef2565b6040518082815260200191505060405180910390f35b34801561030557600080fd5b5061032460048036038101908080359060200190929190505050610f76565b6040518080602001806020018663ffffffff1663ffffffff1681526020018563ffffffff1663ffffffff168152602001848152602001838103835288818151815260200191508051906020019080838360005b83811015610392578082015181840152602081019050610377565b50505050905090810190601f1680156103bf5780820380516001836020036101000a031916815260200191505b50838103825287818151815260200191508051906020019080838360005b838110156103f85780820151818401526020810190506103dd565b50505050905090810190601f1680156104255780820380516001836020036101000a031916815260200191505b5097505050505050505060405180910390f35b34801561044457600080fd5b50610483600480360381019080803573ffffffffffffffffffffffffffffffffffffffff169060200190929190803590602001909291905050506111a0565b005b34801561049157600080fd5b50610516600480360381019080803573ffffffffffffffffffffffffffffffffffffffff16906020019092919080359060200190929190803590602001908201803590602001908080601f01602080910402602001604051908101604052809392919081815260200183838082843782019150505050505091929192905050506112a9565b005b34801561052457600080fd5b5061054360048036038101908080359060200190929190505050611441565b604051808215151515815260200191505060405180910390f35b34801561056957600080fd5b506105ee600480360381019080803573ffffffffffffffffffffffffffffffffffffffff16906020019092919080359060200190929190803590602001908201803590602001908080601f0160208091040260200160405190810160405280939291908181526020018383808284378201915050505050509192919290505050611470565b005b3480156105fc57600080fd5b50610631600480360381019080803573ffffffffffffffffffffffffffffffffffffffff169060200190929190505050611608565b604051808463ffffffff1663ffffffff16815260200180602001838152602001828103825284818151815260200191508051906020019080838360005b8381101561068957808201518184015260208101905061066e565b50505050905090810190601f1680156106b65780820380516001836020036101000a031916815260200191505b5094505050505060405180910390f35b3480156106d257600080fd5b506106db6117a2565b005b3480156106e957600080fd5b506106f26118a4565b604051808273ffffffffffffffffffffffffffffffffffffffff1673ffffffffffffffffffffffffffffffffffffffff16815260200191505060405180910390f35b34801561074057600080fd5b5061076960048036038101908080359060200190929190803590602001909291905050506118c9565b60405180806020018563ffffffff1663ffffffff1681526020018463ffffffff1663ffffffff168152602001838152602001828103825286818151815260200191508051906020019080838360005b838110156107d35780820151818401526020810190506107b8565b50505050905090810190601f1680156108005780820380516001836020036101000a031916815260200191505b509550505050505060405180910390f35b34801561081d57600080fd5b50610826611ab6565b6040518082815260200191505060405180910390f35b34801561084857600080fd5b50610851611ac3565b6040518082815260200191505060405180910390f35b34801561087357600080fd5b506108a8600480360381019080803573ffffffffffffffffffffffffffffffffffffffff169060200190929190505050611ad0565b604051808215151515815260200191505060405180910390f35b3480156108ce57600080fd5b506108ed60048036038101908080359060200190929190505050611b9a565b6040518082815260200191505060405180910390f35b34801561090f57600080fd5b50610944600480360381019080803573ffffffffffffffffffffffffffffffffffffffff169060200190929190505050611c1e565b005b34801561095257600080fd5b50610991600480360381019080803573ffffffffffffffffffffffffffffffffffffffff16906020019092919080359060200190929190505050611c85565b005b34801561099f57600080fd5b506109be60048036038101908080359060200190929190505050611d8e565b604051808463ffffffff1663ffffffff16815260200180602001838152602001828103825284818151815260200191508051906020019080838360005b83811015610a165780820151818401526020810190506109fb565b50505050905090810190601f168015610a435780820380516001836020036101000a031916815260200191505b5094505050505060405180910390f35b6000833373ffffffffffffffffffffffffffffffffffffffff168173ffffffffffffffffffffffffffffffffffffffff16141515610a9057600080fd5b600460a060405190810160405280868152602001858152602001600063ffffffff168152602001600063ffffffff16815260200142815250908060018154018082558091505090600182039060005260206000209060040201600090919290919091506000820151816000019080519060200190610b0f9291906120ba565b506020820151816001019080519060200190610b2c9291906120ba565b5060408201518160020160006101000a81548163ffffffff021916908363ffffffff16021790555060608201518160020160046101000a81548163ffffffff021916908363ffffffff1602179055506080820151816003015550509150600360008673ffffffffffffffffffffffffffffffffffffffff1673ffffffffffffffffffffffffffffffffffffffff1681526020019081526020016000206001830390806001815401808255809150509060018203906000526020600020016000909192909190915055507f599bc76856dcd79357a6990b3d382dce3e36c6286673a3bbac1a45c2890f3b498484604051808060200180602001838103835285818151815260200191508051906020019080838360005b83811015610c5c578082015181840152602081019050610c41565b50505050905090810190601f168015610c895780820380516001836020036101000a031916815260200191505b50838103825284818151815260200191508051906020019080838360005b83811015610cc2578082015181840152602081019050610ca7565b50505050905090810190601f168015610cef5780820380516001836020036101000a031916815260200191505b5094505050505060405180910390a15050505050565b60606000806000606060008760008110151515610d2157600080fd5b600660008a8152602001908152602001600020805480602002602001604051908101604052809291908181526020018280548015610d7e57602002820191906000526020600020905b815481526020019060010190808311610d6a575b505050505092508288815181101515610d9357fe5b906020019060200201519150600882815481101515610dae57fe5b9060005260206000209060030201600001600883815481101515610dce57fe5b906000526020600020906003020160010160009054906101000a900463ffffffff16600884815481101515610dff57fe5b906000526020600020906003020160010160049054906101000a900463ffffffff16600885815481101515610e3057fe5b906000526020600020906003020160020154838054600181600116156101000203166002900480601f016020809104026020016040519081016040528092919081815260200182805460018160011615610100020316600290048015610ed75780601f10610eac57610100808354040283529160200191610ed7565b820191906000526020600020905b815481529060010190602001808311610eba57829003601f168201915b50505050509350965096509650965050505092959194509250565b600060608260008110151515610f0757600080fd5b60066000858152602001908152602001600020805480602002602001604051908101604052809291908181526020018280548015610f6457602002820191906000526020600020905b815481526020019060010190808311610f50575b50505050509150815192505050919050565b6060806000806000610f8786611441565b1515610f9257600080fd5b600486815481101515610fa157fe5b9060005260206000209060040201600001600487815481101515610fc157fe5b9060005260206000209060040201600101600488815481101515610fe157fe5b906000526020600020906004020160020160009054906101000a900463ffffffff1660048981548110151561101257fe5b906000526020600020906004020160020160049054906101000a900463ffffffff1660048a81548110151561104357fe5b906000526020600020906004020160030154848054600181600116156101000203166002900480601f0160208091040260200160405190810160405280929190818152602001828054600181600116156101000203166002900480156110ea5780601f106110bf576101008083540402835291602001916110ea565b820191906000526020600020905b8154815290600101906020018083116110cd57829003601f168201915b50505050509450838054600181600116156101000203166002900480601f0160208091040260200160405190810160405280929190818152602001828054600181600116156101000203166002900480156111865780601f1061115b57610100808354040283529160200191611186565b820191906000526020600020905b81548152906001019060200180831161116957829003601f168201915b505050505093509450945094509450945091939590929450565b6000823373ffffffffffffffffffffffffffffffffffffffff168173ffffffffffffffffffffffffffffffffffffffff161415156111dd57600080fd5b6111e683611441565b15156111f157600080fd5b600160048481548110151561120257fe5b906000526020600020906004020160020160009054906101000a900463ffffffff160191508160048481548110151561123757fe5b906000526020600020906004020160020160006101000a81548163ffffffff021916908363ffffffff1602179055507fe88a0d7ce26163f4da88e3c44000eca254391d94f30b42e4aaa3f589b331381182604051808263ffffffff16815260200191505060405180910390a150505050565b600082600081101515156112bc57600080fd5b843373ffffffffffffffffffffffffffffffffffffffff168173ffffffffffffffffffffffffffffffffffffffff161415156112f757600080fd5b6008608060405190810160405280868152602001600063ffffffff168152602001600063ffffffff168152602001428152509080600181540180825580915050906001820390600052602060002090600302016000909192909190915060008201518160000190805190602001906113709291906120ba565b5060208201518160010160006101000a81548163ffffffff021916908363ffffffff16021790555060408201518160010160046101000a81548163ffffffff021916908363ffffffff1602179055506060820151816002015550509250600660008681526020019081526020016000206001840390806001815401808255809150509060018203906000526020600020016000909192909190915055507f58277ab523dfb345115994281853ad8ce2052f646dd8a793d4825fd4d34c02c460405160405180910390a1505050505050565b60008060048054905011801561145b575081600480549050115b611466576000611469565b60015b9050919050565b6000826000811015151561148357600080fd5b843373ffffffffffffffffffffffffffffffffffffffff168173ffffffffffffffffffffffffffffffffffffffff161415156114be57600080fd5b6008608060405190810160405280868152602001600063ffffffff168152602001600063ffffffff168152602001428152509080600181540180825580915050906001820390600052602060002090600302016000909192909190915060008201518160000190805190602001906115379291906120ba565b5060208201518160010160006101000a81548163ffffffff021916908363ffffffff16021790555060408201518160010160046101000a81548163ffffffff021916908363ffffffff1602179055506060820151816002015550509250600760008681526020019081526020016000206001840390806001815401808255809150509060018203906000526020600020016000909192909190915055507f58277ab523dfb345115994281853ad8ce2052f646dd8a793d4825fd4d34c02c460405160405180910390a1505050505050565b60006060600061161784611ad0565b1561162157600080fd5b600160008573ffffffffffffffffffffffffffffffffffffffff1673ffffffffffffffffffffffffffffffffffffffff16815260200190815260200160002060000160009054906101000a900463ffffffff16600160008673ffffffffffffffffffffffffffffffffffffffff1673ffffffffffffffffffffffffffffffffffffffff168152602001908152602001600020600101600160008773ffffffffffffffffffffffffffffffffffffffff1673ffffffffffffffffffffffffffffffffffffffff16815260200190815260200160002060020154818054600181600116156101000203166002900480601f01602080910402602001604051908101604052809291908181526020018280546001816001161561010002031660029004801561178e5780601f106117635761010080835404028352916020019161178e565b820191906000526020600020905b81548152906001019060200180831161177157829003601f168201915b505050505091509250925092509193909250565b6000809054906101000a900473ffffffffffffffffffffffffffffffffffffffff1673ffffffffffffffffffffffffffffffffffffffff163373ffffffffffffffffffffffffffffffffffffffff161415156117fd57600080fd5b6000809054906101000a900473ffffffffffffffffffffffffffffffffffffffff1673ffffffffffffffffffffffffffffffffffffffff167ff8df31144d9c2f0f6b59d69b8b98abd5459d07f2742c4df920b25aae33c6482060405160405180910390a260008060006101000a81548173ffffffffffffffffffffffffffffffffffffffff021916908373ffffffffffffffffffffffffffffffffffffffff160217905550565b6000809054906101000a900473ffffffffffffffffffffffffffffffffffffffff1681565b606060008060006060600087600081101515156118e557600080fd5b600760008a815260200190815260200160002080548060200260200160405190810160405280929190818152602001828054801561194257602002820191906000526020600020905b81548152602001906001019080831161192e575b50505050509250828881518110151561195757fe5b90602001906020020151915060088281548110151561197257fe5b906000526020600020906003020160000160088381548110151561199257fe5b906000526020600020906003020160010160009054906101000a900463ffffffff166008848154811015156119c357fe5b906000526020600020906003020160010160049054906101000a900463ffffffff166008858154811015156119f457fe5b906000526020600020906003020160020154838054600181600116156101000203166002900480601f016020809104026020016040519081016040528092919081815260200182805460018160011615610100020316600290048015611a9b5780601f10611a7057610100808354040283529160200191611a9b565b820191906000526020600020905b815481529060010190602001808311611a7e57829003601f168201915b50505050509350965096509650965050505092959194509250565b6000600280549050905090565b6000600480549050905090565b6000806002805490501415611ae85760009050611b95565b8173ffffffffffffffffffffffffffffffffffffffff166002600160008573ffffffffffffffffffffffffffffffffffffffff1673ffffffffffffffffffffffffffffffffffffffff16815260200190815260200160002060020154815481101515611b5057fe5b9060005260206000200160009054906101000a900473ffffffffffffffffffffffffffffffffffffffff1673ffffffffffffffffffffffffffffffffffffffff161490505b919050565b600060608260008110151515611baf57600080fd5b60076000858152602001908152602001600020805480602002602001604051908101604052809291908181526020018280548015611c0c57602002820191906000526020600020905b815481526020019060010190808311611bf8575b50505050509150815192505050919050565b6000809054906101000a900473ffffffffffffffffffffffffffffffffffffffff1673ffffffffffffffffffffffffffffffffffffffff163373ffffffffffffffffffffffffffffffffffffffff16141515611c7957600080fd5b611c8281611fc0565b50565b6000823373ffffffffffffffffffffffffffffffffffffffff168173ffffffffffffffffffffffffffffffffffffffff16141515611cc257600080fd5b611ccb83611441565b1515611cd657600080fd5b6001600484815481101515611ce757fe5b906000526020600020906004020160020160049054906101000a900463ffffffff1601915081600484815481101515611d1c57fe5b906000526020600020906004020160020160046101000a81548163ffffffff021916908363ffffffff1602179055507fa6e9d96aeca73e2082656d55153203d9cbd1271c9702dedfb70e39662d7c448482604051808263ffffffff16815260200191505060405180910390a150505050565b60006060600060016000600286815481101515611da757fe5b9060005260206000200160009054906101000a900473ffffffffffffffffffffffffffffffffffffffff1673ffffffffffffffffffffffffffffffffffffffff1673ffffffffffffffffffffffffffffffffffffffff16815260200190815260200160002060000160009054906101000a900463ffffffff1660016000600287815481101515611e3357fe5b9060005260206000200160009054906101000a900473ffffffffffffffffffffffffffffffffffffffff1673ffffffffffffffffffffffffffffffffffffffff1673ffffffffffffffffffffffffffffffffffffffff16815260200190815260200160002060010160016000600288815481101515611eae57fe5b9060005260206000200160009054906101000a900473ffffffffffffffffffffffffffffffffffffffff1673ffffffffffffffffffffffffffffffffffffffff1673ffffffffffffffffffffffffffffffffffffffff16815260200190815260200160002060020154818054600181600116156101000203166002900480601f016020809104026020016040519081016040528092919081815260200182805460018160011615610100020316600290048015611fac5780601f10611f8157610100808354040283529160200191611fac565b820191906000526020600020905b815481529060010190602001808311611f8f57829003601f168201915b505050505091509250925092509193909250565b600073ffffffffffffffffffffffffffffffffffffffff168173ffffffffffffffffffffffffffffffffffffffff1614151515611ffc57600080fd5b8073ffffffffffffffffffffffffffffffffffffffff166000809054906101000a900473ffffffffffffffffffffffffffffffffffffffff1673ffffffffffffffffffffffffffffffffffffffff167f8be0079c531659141344cd1fd0a4f28419497f9722a3daafe3b4186f6b6457e060405160405180910390a3806000806101000a81548173ffffffffffffffffffffffffffffffffffffffff021916908373ffffffffffffffffffffffffffffffffffffffff16021790555050565b828054600181600116156101000203166002900490600052602060002090601f016020900481019282601f106120fb57805160ff1916838001178555612129565b82800160010185558215612129579182015b8281111561212857825182559160200191906001019061210d565b5b509050612136919061213a565b5090565b61215c91905b80821115612158576000816000905550600101612140565b5090565b905600a165627a7a72305820d2ad85e2c114b8b68f8b16ca1215f72dee006b03bfbee44eb37bd07d29d6fd780029",
  "source": "pragma solidity ^0.4.23;\r\nimport \"./BoardPost.sol\";\r\n\r\ncontract BoardReply is BoardPost {\r\n    event OnReplied();\r\n    \r\n    struct Reply {\r\n        string content;\r\n        uint32 like;\r\n        uint32 dislike;\r\n        uint timestamp;\r\n    }\r\n\r\n    mapping(address => uint[]) private userReplies;\r\n    mapping(uint => uint[]) private postIdToReplyIds;\r\n    mapping(uint => uint[]) private replyIdToReplyIds;\r\n    Reply[] private replies;\r\n\r\n    function getReplyFromPost(uint _postId, uint _index) public view validateId(_postId) returns(string, uint32, uint32, uint) {\r\n        uint[] memory replyIds = postIdToReplyIds[_postId];\r\n        uint replyId = replyIds[_index];\r\n        return (\r\n            replies[replyId].content, \r\n            replies[replyId].like, \r\n            replies[replyId].dislike,\r\n            replies[replyId].timestamp\r\n        );\r\n    }\r\n\r\n    function getReplyFromReply(uint _replyId, uint _index) public view validateId(_replyId) returns(string, uint32, uint32, uint) {\r\n        uint[] memory replyIds = replyIdToReplyIds[_replyId];\r\n        uint replyId = replyIds[_index];\r\n        return (\r\n            replies[replyId].content, \r\n            replies[replyId].like, \r\n            replies[replyId].dislike,\r\n            replies[replyId].timestamp\r\n        );\r\n    }\r\n\r\n    function getReplyCountFromPost(uint _postId) public view validateId(_postId) returns(uint){\r\n        uint[] memory replyIds = postIdToReplyIds[_postId];\r\n        return replyIds.length;\r\n    }\r\n\r\n    function getReplyCountFromReply(uint _replyId) public view validateId(_replyId) returns(uint){\r\n        uint[] memory replyIds = replyIdToReplyIds[_replyId];\r\n        return replyIds.length;\r\n    }\r\n\r\n    function writeReplyToPost(address _sender, uint _postId, string _content) public validateId(_postId) onlySender(_sender) {\r\n        uint replyLength = replies.push(Reply(_content, 0, 0, now));\r\n        postIdToReplyIds[_postId].push(replyLength - 1);\r\n        emit OnReplied();\r\n    }\r\n\r\n    function writeReplyToReply(address _sender, uint _replyId, string _content) public validateId(_replyId) onlySender(_sender){\r\n        uint replyLength = replies.push(Reply(_content, 0, 0, now));\r\n        replyIdToReplyIds[_replyId].push(replyLength - 1);\r\n        emit OnReplied();\r\n    }\r\n}",
  "sourcePath": "C:\\Users\\bkoh\\Documents\\git_projects\\etherboard\\contracts\\BoardReply.sol",
  "compiler": {
    "name": "solc",
    "version": "0.4.24+commit.e67f0147.Emscripten.clang"
  },
  "schemaVersion": "2.0.0",
  "updatedAt": "2018-06-21T06:57:41.743Z"
}