{
  "contractName": "BoardPost",
  "abi": [
    {
      "constant": true,
      "inputs": [
        {
          "name": "_userAddress",
          "type": "address"
        }
      ],
      "name": "getUser",
      "outputs": [
        {
          "name": "",
          "type": "uint32"
        },
        {
          "name": "",
          "type": "string"
        },
        {
          "name": "",
          "type": "uint256"
        }
      ],
      "payable": false,
      "stateMutability": "view",
      "type": "function"
    },
    {
      "constant": false,
      "inputs": [],
      "name": "renounceOwnership",
      "outputs": [],
      "payable": false,
      "stateMutability": "nonpayable",
      "type": "function"
    },
    {
      "constant": true,
      "inputs": [],
      "name": "owner",
      "outputs": [
        {
          "name": "",
          "type": "address"
        }
      ],
      "payable": false,
      "stateMutability": "view",
      "type": "function"
    },
    {
      "constant": true,
      "inputs": [],
      "name": "getUserCount",
      "outputs": [
        {
          "name": "",
          "type": "uint256"
        }
      ],
      "payable": false,
      "stateMutability": "view",
      "type": "function"
    },
    {
      "constant": true,
      "inputs": [
        {
          "name": "_userAddress",
          "type": "address"
        }
      ],
      "name": "existUser",
      "outputs": [
        {
          "name": "isExist",
          "type": "bool"
        }
      ],
      "payable": false,
      "stateMutability": "view",
      "type": "function"
    },
    {
      "constant": false,
      "inputs": [
        {
          "name": "_newOwner",
          "type": "address"
        }
      ],
      "name": "transferOwnership",
      "outputs": [],
      "payable": false,
      "stateMutability": "nonpayable",
      "type": "function"
    },
    {
      "constant": true,
      "inputs": [
        {
          "name": "_userIndex",
          "type": "uint256"
        }
      ],
      "name": "getUserByIndex",
      "outputs": [
        {
          "name": "",
          "type": "uint32"
        },
        {
          "name": "",
          "type": "string"
        },
        {
          "name": "",
          "type": "uint256"
        }
      ],
      "payable": false,
      "stateMutability": "view",
      "type": "function"
    },
    {
      "anonymous": false,
      "inputs": [
        {
          "indexed": false,
          "name": "_title",
          "type": "string"
        },
        {
          "indexed": false,
          "name": "_content",
          "type": "string"
        }
      ],
      "name": "OnWritten",
      "type": "event"
    },
    {
      "anonymous": false,
      "inputs": [
        {
          "indexed": false,
          "name": "count",
          "type": "uint256"
        }
      ],
      "name": "OnLiked",
      "type": "event"
    },
    {
      "anonymous": false,
      "inputs": [
        {
          "indexed": false,
          "name": "count",
          "type": "uint256"
        }
      ],
      "name": "OnDisliked",
      "type": "event"
    },
    {
      "anonymous": false,
      "inputs": [
        {
          "indexed": true,
          "name": "previousOwner",
          "type": "address"
        }
      ],
      "name": "OwnershipRenounced",
      "type": "event"
    },
    {
      "anonymous": false,
      "inputs": [
        {
          "indexed": true,
          "name": "previousOwner",
          "type": "address"
        },
        {
          "indexed": true,
          "name": "newOwner",
          "type": "address"
        }
      ],
      "name": "OwnershipTransferred",
      "type": "event"
    },
    {
      "constant": true,
      "inputs": [],
      "name": "getPostCount",
      "outputs": [
        {
          "name": "",
          "type": "uint256"
        }
      ],
      "payable": false,
      "stateMutability": "view",
      "type": "function"
    },
    {
      "constant": true,
      "inputs": [
        {
          "name": "_index",
          "type": "uint256"
        }
      ],
      "name": "getPost",
      "outputs": [
        {
          "name": "",
          "type": "string"
        },
        {
          "name": "",
          "type": "string"
        },
        {
          "name": "",
          "type": "uint32"
        },
        {
          "name": "",
          "type": "uint32"
        }
      ],
      "payable": false,
      "stateMutability": "view",
      "type": "function"
    },
    {
      "constant": false,
      "inputs": [
        {
          "name": "_sender",
          "type": "address"
        },
        {
          "name": "_title",
          "type": "string"
        },
        {
          "name": "_content",
          "type": "string"
        }
      ],
      "name": "writePost",
      "outputs": [],
      "payable": false,
      "stateMutability": "nonpayable",
      "type": "function"
    },
    {
      "constant": false,
      "inputs": [
        {
          "name": "_sender",
          "type": "address"
        },
        {
          "name": "_index",
          "type": "uint256"
        }
      ],
      "name": "likePost",
      "outputs": [],
      "payable": false,
      "stateMutability": "nonpayable",
      "type": "function"
    },
    {
      "constant": false,
      "inputs": [
        {
          "name": "_sender",
          "type": "address"
        },
        {
          "name": "_index",
          "type": "uint256"
        }
      ],
      "name": "dislikePost",
      "outputs": [],
      "payable": false,
      "stateMutability": "nonpayable",
      "type": "function"
    },
    {
      "constant": true,
      "inputs": [
        {
          "name": "_postIndex",
          "type": "uint256"
        }
      ],
      "name": "existPost",
      "outputs": [
        {
          "name": "isExist",
          "type": "bool"
        }
      ],
      "payable": false,
      "stateMutability": "view",
      "type": "function"
    }
  ],
  "bytecode": "0x6080604052336000806101000a81548173ffffffffffffffffffffffffffffffffffffffff021916908373ffffffffffffffffffffffffffffffffffffffff160217905550611597806100536000396000f3006080604052600436106100c5576000357c0100000000000000000000000000000000000000000000000000000000900463ffffffff1680631e446218146100ca57806340731c241461019957806348351529146102d1578063498122ff1461031e5780636f77926b14610363578063715018a6146104395780638da5cb5b14610450578063b5cb15f7146104a7578063bcc95407146104d2578063e42954d9146104fd578063f2fde38b14610558578063fa00eb8d1461059b578063ff5d32fe146105e8575b600080fd5b3480156100d657600080fd5b50610197600480360381019080803573ffffffffffffffffffffffffffffffffffffffff169060200190929190803590602001908201803590602001908080601f0160208091040260200160405190810160405280939291908181526020018383808284378201915050505050509192919290803590602001908201803590602001908080601f01602080910402602001604051908101604052809392919081815260200183838082843782019150505050505091929192905050506106a8565b005b3480156101a557600080fd5b506101c46004803603810190808035906020019092919050505061094a565b6040518080602001806020018563ffffffff1663ffffffff1681526020018463ffffffff1663ffffffff168152602001838103835287818151815260200191508051906020019080838360005b8381101561022c578082015181840152602081019050610211565b50505050905090810190601f1680156102595780820380516001836020036101000a031916815260200191505b50838103825286818151815260200191508051906020019080838360005b83811015610292578082015181840152602081019050610277565b50505050905090810190601f1680156102bf5780820380516001836020036101000a031916815260200191505b50965050505050505060405180910390f35b3480156102dd57600080fd5b5061031c600480360381019080803573ffffffffffffffffffffffffffffffffffffffff16906020019092919080359060200190929190505050610b4d565b005b34801561032a57600080fd5b5061034960048036038101908080359060200190929190505050610c56565b604051808215151515815260200191505060405180910390f35b34801561036f57600080fd5b506103a4600480360381019080803573ffffffffffffffffffffffffffffffffffffffff169060200190929190505050610c85565b604051808463ffffffff1663ffffffff16815260200180602001838152602001828103825284818151815260200191508051906020019080838360005b838110156103fc5780820151818401526020810190506103e1565b50505050905090810190601f1680156104295780820380516001836020036101000a031916815260200191505b5094505050505060405180910390f35b34801561044557600080fd5b5061044e610e1f565b005b34801561045c57600080fd5b50610465610f21565b604051808273ffffffffffffffffffffffffffffffffffffffff1673ffffffffffffffffffffffffffffffffffffffff16815260200191505060405180910390f35b3480156104b357600080fd5b506104bc610f46565b6040518082815260200191505060405180910390f35b3480156104de57600080fd5b506104e7610f53565b6040518082815260200191505060405180910390f35b34801561050957600080fd5b5061053e600480360381019080803573ffffffffffffffffffffffffffffffffffffffff169060200190929190505050610f60565b604051808215151515815260200191505060405180910390f35b34801561056457600080fd5b50610599600480360381019080803573ffffffffffffffffffffffffffffffffffffffff16906020019092919050505061102a565b005b3480156105a757600080fd5b506105e6600480360381019080803573ffffffffffffffffffffffffffffffffffffffff16906020019092919080359060200190929190505050611091565b005b3480156105f457600080fd5b506106136004803603810190808035906020019092919050505061119a565b604051808463ffffffff1663ffffffff16815260200180602001838152602001828103825284818151815260200191508051906020019080838360005b8381101561066b578082015181840152602081019050610650565b50505050905090810190601f1680156106985780820380516001836020036101000a031916815260200191505b5094505050505060405180910390f35b6000833373ffffffffffffffffffffffffffffffffffffffff168173ffffffffffffffffffffffffffffffffffffffff161415156106e557600080fd5b6004608060405190810160405280868152602001858152602001600063ffffffff168152602001600063ffffffff1681525090806001815401808255809150509060018203906000526020600020906003020160009091929091909150600082015181600001908051906020019061075e9291906114c6565b50602082015181600101908051906020019061077b9291906114c6565b5060408201518160020160006101000a81548163ffffffff021916908363ffffffff16021790555060608201518160020160046101000a81548163ffffffff021916908363ffffffff16021790555050509150600360008673ffffffffffffffffffffffffffffffffffffffff1673ffffffffffffffffffffffffffffffffffffffff1681526020019081526020016000206001830390806001815401808255809150509060018203906000526020600020016000909192909190915055507f599bc76856dcd79357a6990b3d382dce3e36c6286673a3bbac1a45c2890f3b498484604051808060200180602001838103835285818151815260200191508051906020019080838360005b838110156108a1578082015181840152602081019050610886565b50505050905090810190601f1680156108ce5780820380516001836020036101000a031916815260200191505b50838103825284818151815260200191508051906020019080838360005b838110156109075780820151818401526020810190506108ec565b50505050905090810190601f1680156109345780820380516001836020036101000a031916815260200191505b5094505050505060405180910390a15050505050565b60608060008061095985610c56565b151561096457600080fd5b60048581548110151561097357fe5b906000526020600020906003020160000160048681548110151561099357fe5b90600052602060002090600302016001016004878154811015156109b357fe5b906000526020600020906003020160020160009054906101000a900463ffffffff166004888154811015156109e457fe5b906000526020600020906003020160020160049054906101000a900463ffffffff16838054600181600116156101000203166002900480601f016020809104026020016040519081016040528092919081815260200182805460018160011615610100020316600290048015610a9b5780601f10610a7057610100808354040283529160200191610a9b565b820191906000526020600020905b815481529060010190602001808311610a7e57829003601f168201915b50505050509350828054600181600116156101000203166002900480601f016020809104026020016040519081016040528092919081815260200182805460018160011615610100020316600290048015610b375780601f10610b0c57610100808354040283529160200191610b37565b820191906000526020600020905b815481529060010190602001808311610b1a57829003601f168201915b5050505050925093509350935093509193509193565b6000823373ffffffffffffffffffffffffffffffffffffffff168173ffffffffffffffffffffffffffffffffffffffff16141515610b8a57600080fd5b610b9383610c56565b1515610b9e57600080fd5b6001600484815481101515610baf57fe5b906000526020600020906003020160020160009054906101000a900463ffffffff1601915081600484815481101515610be457fe5b906000526020600020906003020160020160006101000a81548163ffffffff021916908363ffffffff1602179055507fe88a0d7ce26163f4da88e3c44000eca254391d94f30b42e4aaa3f589b331381182604051808263ffffffff16815260200191505060405180910390a150505050565b600080600480549050118015610c70575081600480549050115b610c7b576000610c7e565b60015b9050919050565b600060606000610c9484610f60565b15610c9e57600080fd5b600160008573ffffffffffffffffffffffffffffffffffffffff1673ffffffffffffffffffffffffffffffffffffffff16815260200190815260200160002060000160009054906101000a900463ffffffff16600160008673ffffffffffffffffffffffffffffffffffffffff1673ffffffffffffffffffffffffffffffffffffffff168152602001908152602001600020600101600160008773ffffffffffffffffffffffffffffffffffffffff1673ffffffffffffffffffffffffffffffffffffffff16815260200190815260200160002060020154818054600181600116156101000203166002900480601f016020809104026020016040519081016040528092919081815260200182805460018160011615610100020316600290048015610e0b5780601f10610de057610100808354040283529160200191610e0b565b820191906000526020600020905b815481529060010190602001808311610dee57829003601f168201915b505050505091509250925092509193909250565b6000809054906101000a900473ffffffffffffffffffffffffffffffffffffffff1673ffffffffffffffffffffffffffffffffffffffff163373ffffffffffffffffffffffffffffffffffffffff16141515610e7a57600080fd5b6000809054906101000a900473ffffffffffffffffffffffffffffffffffffffff1673ffffffffffffffffffffffffffffffffffffffff167ff8df31144d9c2f0f6b59d69b8b98abd5459d07f2742c4df920b25aae33c6482060405160405180910390a260008060006101000a81548173ffffffffffffffffffffffffffffffffffffffff021916908373ffffffffffffffffffffffffffffffffffffffff160217905550565b6000809054906101000a900473ffffffffffffffffffffffffffffffffffffffff1681565b6000600280549050905090565b6000600480549050905090565b6000806002805490501415610f785760009050611025565b8173ffffffffffffffffffffffffffffffffffffffff166002600160008573ffffffffffffffffffffffffffffffffffffffff1673ffffffffffffffffffffffffffffffffffffffff16815260200190815260200160002060020154815481101515610fe057fe5b9060005260206000200160009054906101000a900473ffffffffffffffffffffffffffffffffffffffff1673ffffffffffffffffffffffffffffffffffffffff161490505b919050565b6000809054906101000a900473ffffffffffffffffffffffffffffffffffffffff1673ffffffffffffffffffffffffffffffffffffffff163373ffffffffffffffffffffffffffffffffffffffff1614151561108557600080fd5b61108e816113cc565b50565b6000823373ffffffffffffffffffffffffffffffffffffffff168173ffffffffffffffffffffffffffffffffffffffff161415156110ce57600080fd5b6110d783610c56565b15156110e257600080fd5b60016004848154811015156110f357fe5b906000526020600020906003020160020160049054906101000a900463ffffffff160191508160048481548110151561112857fe5b906000526020600020906003020160020160046101000a81548163ffffffff021916908363ffffffff1602179055507fa6e9d96aeca73e2082656d55153203d9cbd1271c9702dedfb70e39662d7c448482604051808263ffffffff16815260200191505060405180910390a150505050565b600060606000600160006002868154811015156111b357fe5b9060005260206000200160009054906101000a900473ffffffffffffffffffffffffffffffffffffffff1673ffffffffffffffffffffffffffffffffffffffff1673ffffffffffffffffffffffffffffffffffffffff16815260200190815260200160002060000160009054906101000a900463ffffffff166001600060028781548110151561123f57fe5b9060005260206000200160009054906101000a900473ffffffffffffffffffffffffffffffffffffffff1673ffffffffffffffffffffffffffffffffffffffff1673ffffffffffffffffffffffffffffffffffffffff168152602001908152602001600020600101600160006002888154811015156112ba57fe5b9060005260206000200160009054906101000a900473ffffffffffffffffffffffffffffffffffffffff1673ffffffffffffffffffffffffffffffffffffffff1673ffffffffffffffffffffffffffffffffffffffff16815260200190815260200160002060020154818054600181600116156101000203166002900480601f0160208091040260200160405190810160405280929190818152602001828054600181600116156101000203166002900480156113b85780601f1061138d576101008083540402835291602001916113b8565b820191906000526020600020905b81548152906001019060200180831161139b57829003601f168201915b505050505091509250925092509193909250565b600073ffffffffffffffffffffffffffffffffffffffff168173ffffffffffffffffffffffffffffffffffffffff161415151561140857600080fd5b8073ffffffffffffffffffffffffffffffffffffffff166000809054906101000a900473ffffffffffffffffffffffffffffffffffffffff1673ffffffffffffffffffffffffffffffffffffffff167f8be0079c531659141344cd1fd0a4f28419497f9722a3daafe3b4186f6b6457e060405160405180910390a3806000806101000a81548173ffffffffffffffffffffffffffffffffffffffff021916908373ffffffffffffffffffffffffffffffffffffffff16021790555050565b828054600181600116156101000203166002900490600052602060002090601f016020900481019282601f1061150757805160ff1916838001178555611535565b82800160010185558215611535579182015b82811115611534578251825591602001919060010190611519565b5b5090506115429190611546565b5090565b61156891905b8082111561156457600081600090555060010161154c565b5090565b905600a165627a7a723058202c2b6199d05f186f514789ae60d6b69ba475f73d386b281dc40aecef648eb9ff0029",
  "source": "pragma solidity ^0.4.23;\r\nimport \"./BoardUser.sol\";\r\n\r\ncontract BoardPost is BoardUser {\r\n    event OnWritten(string _title, string _content);\r\n    event OnLiked(uint count);\r\n    event OnDisliked(uint count);\r\n    \r\n    struct Post {\r\n        string title;\r\n        string content;\r\n        uint32 like;\r\n        uint32 dislike;\r\n    }\r\n\r\n    mapping(address => uint[]) private userPosts;\r\n    Post[] private posts;\r\n\r\n    function getPostCount() public view returns(uint) {\r\n        return posts.length;\r\n    }\r\n\r\n    function getPost(uint _index) public view returns(string, string, uint32, uint32) {\r\n        if(!existPost(_index)) revert();\r\n\r\n        return (\r\n            posts[_index].title,\r\n            posts[_index].content,\r\n            posts[_index].like,\r\n            posts[_index].dislike\r\n        );\r\n    }\r\n\r\n    function writePost(address _sender, string _title, string _content) public onlySender(_sender) {\r\n        uint postLength = posts.push(Post(_title, _content, 0, 0));\r\n        userPosts[_sender].push(postLength - 1);\r\n        emit OnWritten(_title, _content);\r\n    }\r\n\r\n    function likePost(address _sender,uint _index) public onlySender(_sender){\r\n        if(!existPost(_index)) revert();\r\n\r\n        uint32 count = posts[_index].like + 1;\r\n        posts[_index].like = count;\r\n        emit OnLiked(count);\r\n    }\r\n\r\n    function dislikePost(address _sender,uint _index) public onlySender(_sender){\r\n        if(!existPost(_index)) revert();\r\n\r\n        uint32 count = posts[_index].dislike + 1;\r\n        posts[_index].dislike = count;\r\n        emit OnDisliked(count);\r\n    }\r\n\r\n    function existPost(uint _postIndex) public view returns(bool isExist){\r\n        return (posts.length > 0 && posts.length > _postIndex) ? true : false;\r\n    }\r\n}",
  "sourcePath": "C:\\Users\\bkoh\\Documents\\git_projects\\etherboard\\contracts\\BoardPost.sol",
  "compiler": {
    "name": "solc",
    "version": "0.4.24+commit.e67f0147.Emscripten.clang"
  },
  "schemaVersion": "2.0.0",
  "updatedAt": "2018-06-17T14:49:52.413Z"
}