{
  "contractName": "BoardReply",
  "abi": [
    {
      "constant": false,
      "inputs": [
        {
          "name": "_sender",
          "type": "address"
        },
        {
          "name": "_title",
          "type": "string"
        },
        {
          "name": "_content",
          "type": "string"
        }
      ],
      "name": "writePost",
      "outputs": [],
      "payable": false,
      "stateMutability": "nonpayable",
      "type": "function"
    },
    {
      "constant": true,
      "inputs": [
        {
          "name": "_index",
          "type": "uint256"
        }
      ],
      "name": "getPost",
      "outputs": [
        {
          "name": "",
          "type": "string"
        },
        {
          "name": "",
          "type": "string"
        },
        {
          "name": "",
          "type": "uint32"
        },
        {
          "name": "",
          "type": "uint32"
        }
      ],
      "payable": false,
      "stateMutability": "view",
      "type": "function"
    },
    {
      "constant": false,
      "inputs": [
        {
          "name": "_sender",
          "type": "address"
        },
        {
          "name": "_index",
          "type": "uint256"
        }
      ],
      "name": "likePost",
      "outputs": [],
      "payable": false,
      "stateMutability": "nonpayable",
      "type": "function"
    },
    {
      "constant": true,
      "inputs": [
        {
          "name": "_postIndex",
          "type": "uint256"
        }
      ],
      "name": "existPost",
      "outputs": [
        {
          "name": "isExist",
          "type": "bool"
        }
      ],
      "payable": false,
      "stateMutability": "view",
      "type": "function"
    },
    {
      "constant": true,
      "inputs": [
        {
          "name": "_userAddress",
          "type": "address"
        }
      ],
      "name": "getUser",
      "outputs": [
        {
          "name": "",
          "type": "uint32"
        },
        {
          "name": "",
          "type": "string"
        },
        {
          "name": "",
          "type": "uint256"
        }
      ],
      "payable": false,
      "stateMutability": "view",
      "type": "function"
    },
    {
      "constant": false,
      "inputs": [],
      "name": "renounceOwnership",
      "outputs": [],
      "payable": false,
      "stateMutability": "nonpayable",
      "type": "function"
    },
    {
      "constant": true,
      "inputs": [],
      "name": "owner",
      "outputs": [
        {
          "name": "",
          "type": "address"
        }
      ],
      "payable": false,
      "stateMutability": "view",
      "type": "function"
    },
    {
      "constant": true,
      "inputs": [],
      "name": "getUserCount",
      "outputs": [
        {
          "name": "",
          "type": "uint256"
        }
      ],
      "payable": false,
      "stateMutability": "view",
      "type": "function"
    },
    {
      "constant": true,
      "inputs": [],
      "name": "getPostCount",
      "outputs": [
        {
          "name": "",
          "type": "uint256"
        }
      ],
      "payable": false,
      "stateMutability": "view",
      "type": "function"
    },
    {
      "constant": true,
      "inputs": [
        {
          "name": "_userAddress",
          "type": "address"
        }
      ],
      "name": "existUser",
      "outputs": [
        {
          "name": "isExist",
          "type": "bool"
        }
      ],
      "payable": false,
      "stateMutability": "view",
      "type": "function"
    },
    {
      "constant": false,
      "inputs": [
        {
          "name": "_newOwner",
          "type": "address"
        }
      ],
      "name": "transferOwnership",
      "outputs": [],
      "payable": false,
      "stateMutability": "nonpayable",
      "type": "function"
    },
    {
      "constant": false,
      "inputs": [
        {
          "name": "_sender",
          "type": "address"
        },
        {
          "name": "_index",
          "type": "uint256"
        }
      ],
      "name": "dislikePost",
      "outputs": [],
      "payable": false,
      "stateMutability": "nonpayable",
      "type": "function"
    },
    {
      "constant": true,
      "inputs": [
        {
          "name": "_userIndex",
          "type": "uint256"
        }
      ],
      "name": "getUserByIndex",
      "outputs": [
        {
          "name": "",
          "type": "uint32"
        },
        {
          "name": "",
          "type": "string"
        },
        {
          "name": "",
          "type": "uint256"
        }
      ],
      "payable": false,
      "stateMutability": "view",
      "type": "function"
    },
    {
      "anonymous": false,
      "inputs": [],
      "name": "OnReplied",
      "type": "event"
    },
    {
      "anonymous": false,
      "inputs": [
        {
          "indexed": false,
          "name": "_title",
          "type": "string"
        },
        {
          "indexed": false,
          "name": "_content",
          "type": "string"
        }
      ],
      "name": "OnWritten",
      "type": "event"
    },
    {
      "anonymous": false,
      "inputs": [
        {
          "indexed": false,
          "name": "count",
          "type": "uint256"
        }
      ],
      "name": "OnLiked",
      "type": "event"
    },
    {
      "anonymous": false,
      "inputs": [
        {
          "indexed": false,
          "name": "count",
          "type": "uint256"
        }
      ],
      "name": "OnDisliked",
      "type": "event"
    },
    {
      "anonymous": false,
      "inputs": [
        {
          "indexed": true,
          "name": "previousOwner",
          "type": "address"
        }
      ],
      "name": "OwnershipRenounced",
      "type": "event"
    },
    {
      "anonymous": false,
      "inputs": [
        {
          "indexed": true,
          "name": "previousOwner",
          "type": "address"
        },
        {
          "indexed": true,
          "name": "newOwner",
          "type": "address"
        }
      ],
      "name": "OwnershipTransferred",
      "type": "event"
    },
    {
      "constant": true,
      "inputs": [
        {
          "name": "_postId",
          "type": "uint256"
        },
        {
          "name": "_index",
          "type": "uint256"
        }
      ],
      "name": "getReplyFromPost",
      "outputs": [
        {
          "name": "",
          "type": "string"
        },
        {
          "name": "",
          "type": "uint32"
        },
        {
          "name": "",
          "type": "uint32"
        }
      ],
      "payable": false,
      "stateMutability": "view",
      "type": "function"
    },
    {
      "constant": true,
      "inputs": [
        {
          "name": "_replyId",
          "type": "uint256"
        },
        {
          "name": "_index",
          "type": "uint256"
        }
      ],
      "name": "getReplyFromReply",
      "outputs": [
        {
          "name": "",
          "type": "string"
        },
        {
          "name": "",
          "type": "uint32"
        },
        {
          "name": "",
          "type": "uint32"
        }
      ],
      "payable": false,
      "stateMutability": "view",
      "type": "function"
    },
    {
      "constant": true,
      "inputs": [
        {
          "name": "_postId",
          "type": "uint256"
        }
      ],
      "name": "getReplyCountFromPost",
      "outputs": [
        {
          "name": "",
          "type": "uint256"
        }
      ],
      "payable": false,
      "stateMutability": "view",
      "type": "function"
    },
    {
      "constant": true,
      "inputs": [
        {
          "name": "_replyId",
          "type": "uint256"
        }
      ],
      "name": "getReplyCountFromReply",
      "outputs": [
        {
          "name": "",
          "type": "uint256"
        }
      ],
      "payable": false,
      "stateMutability": "view",
      "type": "function"
    },
    {
      "constant": false,
      "inputs": [
        {
          "name": "_sender",
          "type": "address"
        },
        {
          "name": "_postId",
          "type": "uint256"
        },
        {
          "name": "_content",
          "type": "string"
        }
      ],
      "name": "writeReplyToPost",
      "outputs": [],
      "payable": false,
      "stateMutability": "nonpayable",
      "type": "function"
    },
    {
      "constant": false,
      "inputs": [
        {
          "name": "_sender",
          "type": "address"
        },
        {
          "name": "_replyId",
          "type": "uint256"
        },
        {
          "name": "_content",
          "type": "string"
        }
      ],
      "name": "writeReplyToReply",
      "outputs": [],
      "payable": false,
      "stateMutability": "nonpayable",
      "type": "function"
    }
  ],
  "bytecode": "0x6080604052336000806101000a81548173ffffffffffffffffffffffffffffffffffffffff021916908373ffffffffffffffffffffffffffffffffffffffff1602179055506120d1806100536000396000f300608060405260043610610107576000357c0100000000000000000000000000000000000000000000000000000000900463ffffffff1680631e4462181461010c57806323cb9f4d146101db5780632403df84146102b157806340731c24146102f2578063483515291461042a578063497a996814610477578063498122ff1461050a5780636b3d91c91461054f5780636f77926b146105e2578063715018a6146106b85780638da5cb5b146106cf5780639aba355f14610726578063b5cb15f7146107fc578063bcc9540714610827578063e42954d914610852578063e964ed3d146108ad578063f2fde38b146108ee578063fa00eb8d14610931578063ff5d32fe1461097e575b600080fd5b34801561011857600080fd5b506101d9600480360381019080803573ffffffffffffffffffffffffffffffffffffffff169060200190929190803590602001908201803590602001908080601f0160208091040260200160405190810160405280939291908181526020018383808284378201915050505050509192919290803590602001908201803590602001908080601f0160208091040260200160405190810160405280939291908181526020018383808284378201915050505050509192919290505050610a3e565b005b3480156101e757600080fd5b506102106004803603810190808035906020019092919080359060200190929190505050610ce0565b60405180806020018463ffffffff1663ffffffff1681526020018363ffffffff1663ffffffff168152602001828103825285818151815260200191508051906020019080838360005b83811015610274578082015181840152602081019050610259565b50505050905090810190601f1680156102a15780820380516001836020036101000a031916815260200191505b5094505050505060405180910390f35b3480156102bd57600080fd5b506102dc60048036038101908080359060200190929190505050610ea6565b6040518082815260200191505060405180910390f35b3480156102fe57600080fd5b5061031d60048036038101908080359060200190929190505050610f2a565b6040518080602001806020018563ffffffff1663ffffffff1681526020018463ffffffff1663ffffffff168152602001838103835287818151815260200191508051906020019080838360005b8381101561038557808201518184015260208101905061036a565b50505050905090810190601f1680156103b25780820380516001836020036101000a031916815260200191505b50838103825286818151815260200191508051906020019080838360005b838110156103eb5780820151818401526020810190506103d0565b50505050905090810190601f1680156104185780820380516001836020036101000a031916815260200191505b50965050505050505060405180910390f35b34801561043657600080fd5b50610475600480360381019080803573ffffffffffffffffffffffffffffffffffffffff1690602001909291908035906020019092919050505061112d565b005b34801561048357600080fd5b50610508600480360381019080803573ffffffffffffffffffffffffffffffffffffffff16906020019092919080359060200190929190803590602001908201803590602001908080601f0160208091040260200160405190810160405280939291908181526020018383808284378201915050505050509192919290505050611236565b005b34801561051657600080fd5b50610535600480360381019080803590602001909291905050506113be565b604051808215151515815260200191505060405180910390f35b34801561055b57600080fd5b506105e0600480360381019080803573ffffffffffffffffffffffffffffffffffffffff16906020019092919080359060200190929190803590602001908201803590602001908080601f01602080910402602001604051908101604052809392919081815260200183838082843782019150505050505091929192905050506113ed565b005b3480156105ee57600080fd5b50610623600480360381019080803573ffffffffffffffffffffffffffffffffffffffff169060200190929190505050611575565b604051808463ffffffff1663ffffffff16815260200180602001838152602001828103825284818151815260200191508051906020019080838360005b8381101561067b578082015181840152602081019050610660565b50505050905090810190601f1680156106a85780820380516001836020036101000a031916815260200191505b5094505050505060405180910390f35b3480156106c457600080fd5b506106cd61170f565b005b3480156106db57600080fd5b506106e4611811565b604051808273ffffffffffffffffffffffffffffffffffffffff1673ffffffffffffffffffffffffffffffffffffffff16815260200191505060405180910390f35b34801561073257600080fd5b5061075b6004803603810190808035906020019092919080359060200190929190505050611836565b60405180806020018463ffffffff1663ffffffff1681526020018363ffffffff1663ffffffff168152602001828103825285818151815260200191508051906020019080838360005b838110156107bf5780820151818401526020810190506107a4565b50505050905090810190601f1680156107ec5780820380516001836020036101000a031916815260200191505b5094505050505060405180910390f35b34801561080857600080fd5b506108116119fc565b6040518082815260200191505060405180910390f35b34801561083357600080fd5b5061083c611a09565b6040518082815260200191505060405180910390f35b34801561085e57600080fd5b50610893600480360381019080803573ffffffffffffffffffffffffffffffffffffffff169060200190929190505050611a16565b604051808215151515815260200191505060405180910390f35b3480156108b957600080fd5b506108d860048036038101908080359060200190929190505050611ae0565b6040518082815260200191505060405180910390f35b3480156108fa57600080fd5b5061092f600480360381019080803573ffffffffffffffffffffffffffffffffffffffff169060200190929190505050611b64565b005b34801561093d57600080fd5b5061097c600480360381019080803573ffffffffffffffffffffffffffffffffffffffff16906020019092919080359060200190929190505050611bcb565b005b34801561098a57600080fd5b506109a960048036038101908080359060200190929190505050611cd4565b604051808463ffffffff1663ffffffff16815260200180602001838152602001828103825284818151815260200191508051906020019080838360005b83811015610a015780820151818401526020810190506109e6565b50505050905090810190601f168015610a2e5780820380516001836020036101000a031916815260200191505b5094505050505060405180910390f35b6000833373ffffffffffffffffffffffffffffffffffffffff168173ffffffffffffffffffffffffffffffffffffffff16141515610a7b57600080fd5b6004608060405190810160405280868152602001858152602001600063ffffffff168152602001600063ffffffff16815250908060018154018082558091505090600182039060005260206000209060030201600090919290919091506000820151816000019080519060200190610af4929190612000565b506020820151816001019080519060200190610b11929190612000565b5060408201518160020160006101000a81548163ffffffff021916908363ffffffff16021790555060608201518160020160046101000a81548163ffffffff021916908363ffffffff16021790555050509150600360008673ffffffffffffffffffffffffffffffffffffffff1673ffffffffffffffffffffffffffffffffffffffff1681526020019081526020016000206001830390806001815401808255809150509060018203906000526020600020016000909192909190915055507f599bc76856dcd79357a6990b3d382dce3e36c6286673a3bbac1a45c2890f3b498484604051808060200180602001838103835285818151815260200191508051906020019080838360005b83811015610c37578082015181840152602081019050610c1c565b50505050905090810190601f168015610c645780820380516001836020036101000a031916815260200191505b50838103825284818151815260200191508051906020019080838360005b83811015610c9d578082015181840152602081019050610c82565b50505050905090810190601f168015610cca5780820380516001836020036101000a031916815260200191505b5094505050505060405180910390a15050505050565b6060600080606060008660008110151515610cfa57600080fd5b60066000898152602001908152602001600020805480602002602001604051908101604052809291908181526020018280548015610d5757602002820191906000526020600020905b815481526020019060010190808311610d43575b505050505092508287815181101515610d6c57fe5b906020019060200201519150600882815481101515610d8757fe5b9060005260206000209060020201600001600883815481101515610da757fe5b906000526020600020906002020160010160009054906101000a900463ffffffff16600884815481101515610dd857fe5b906000526020600020906002020160010160049054906101000a900463ffffffff16828054600181600116156101000203166002900480601f016020809104026020016040519081016040528092919081815260200182805460018160011615610100020316600290048015610e8f5780601f10610e6457610100808354040283529160200191610e8f565b820191906000526020600020905b815481529060010190602001808311610e7257829003601f168201915b505050505092509550955095505050509250925092565b600060608260008110151515610ebb57600080fd5b60066000858152602001908152602001600020805480602002602001604051908101604052809291908181526020018280548015610f1857602002820191906000526020600020905b815481526020019060010190808311610f04575b50505050509150815192505050919050565b606080600080610f39856113be565b1515610f4457600080fd5b600485815481101515610f5357fe5b9060005260206000209060030201600001600486815481101515610f7357fe5b9060005260206000209060030201600101600487815481101515610f9357fe5b906000526020600020906003020160020160009054906101000a900463ffffffff16600488815481101515610fc457fe5b906000526020600020906003020160020160049054906101000a900463ffffffff16838054600181600116156101000203166002900480601f01602080910402602001604051908101604052809291908181526020018280546001816001161561010002031660029004801561107b5780601f106110505761010080835404028352916020019161107b565b820191906000526020600020905b81548152906001019060200180831161105e57829003601f168201915b50505050509350828054600181600116156101000203166002900480601f0160208091040260200160405190810160405280929190818152602001828054600181600116156101000203166002900480156111175780601f106110ec57610100808354040283529160200191611117565b820191906000526020600020905b8154815290600101906020018083116110fa57829003601f168201915b5050505050925093509350935093509193509193565b6000823373ffffffffffffffffffffffffffffffffffffffff168173ffffffffffffffffffffffffffffffffffffffff1614151561116a57600080fd5b611173836113be565b151561117e57600080fd5b600160048481548110151561118f57fe5b906000526020600020906003020160020160009054906101000a900463ffffffff16019150816004848154811015156111c457fe5b906000526020600020906003020160020160006101000a81548163ffffffff021916908363ffffffff1602179055507fe88a0d7ce26163f4da88e3c44000eca254391d94f30b42e4aaa3f589b331381182604051808263ffffffff16815260200191505060405180910390a150505050565b6000826000811015151561124957600080fd5b843373ffffffffffffffffffffffffffffffffffffffff168173ffffffffffffffffffffffffffffffffffffffff1614151561128457600080fd5b6008606060405190810160405280868152602001600063ffffffff168152602001600063ffffffff168152509080600181540180825580915050906001820390600052602060002090600202016000909192909190915060008201518160000190805190602001906112f7929190612000565b5060208201518160010160006101000a81548163ffffffff021916908363ffffffff16021790555060408201518160010160046101000a81548163ffffffff021916908363ffffffff16021790555050509250600660008681526020019081526020016000206001840390806001815401808255809150509060018203906000526020600020016000909192909190915055507f58277ab523dfb345115994281853ad8ce2052f646dd8a793d4825fd4d34c02c460405160405180910390a1505050505050565b6000806004805490501180156113d8575081600480549050115b6113e35760006113e6565b60015b9050919050565b6000826000811015151561140057600080fd5b843373ffffffffffffffffffffffffffffffffffffffff168173ffffffffffffffffffffffffffffffffffffffff1614151561143b57600080fd5b6008606060405190810160405280868152602001600063ffffffff168152602001600063ffffffff168152509080600181540180825580915050906001820390600052602060002090600202016000909192909190915060008201518160000190805190602001906114ae929190612000565b5060208201518160010160006101000a81548163ffffffff021916908363ffffffff16021790555060408201518160010160046101000a81548163ffffffff021916908363ffffffff16021790555050509250600760008681526020019081526020016000206001840390806001815401808255809150509060018203906000526020600020016000909192909190915055507f58277ab523dfb345115994281853ad8ce2052f646dd8a793d4825fd4d34c02c460405160405180910390a1505050505050565b60006060600061158484611a16565b1561158e57600080fd5b600160008573ffffffffffffffffffffffffffffffffffffffff1673ffffffffffffffffffffffffffffffffffffffff16815260200190815260200160002060000160009054906101000a900463ffffffff16600160008673ffffffffffffffffffffffffffffffffffffffff1673ffffffffffffffffffffffffffffffffffffffff168152602001908152602001600020600101600160008773ffffffffffffffffffffffffffffffffffffffff1673ffffffffffffffffffffffffffffffffffffffff16815260200190815260200160002060020154818054600181600116156101000203166002900480601f0160208091040260200160405190810160405280929190818152602001828054600181600116156101000203166002900480156116fb5780601f106116d0576101008083540402835291602001916116fb565b820191906000526020600020905b8154815290600101906020018083116116de57829003601f168201915b505050505091509250925092509193909250565b6000809054906101000a900473ffffffffffffffffffffffffffffffffffffffff1673ffffffffffffffffffffffffffffffffffffffff163373ffffffffffffffffffffffffffffffffffffffff1614151561176a57600080fd5b6000809054906101000a900473ffffffffffffffffffffffffffffffffffffffff1673ffffffffffffffffffffffffffffffffffffffff167ff8df31144d9c2f0f6b59d69b8b98abd5459d07f2742c4df920b25aae33c6482060405160405180910390a260008060006101000a81548173ffffffffffffffffffffffffffffffffffffffff021916908373ffffffffffffffffffffffffffffffffffffffff160217905550565b6000809054906101000a900473ffffffffffffffffffffffffffffffffffffffff1681565b606060008060606000866000811015151561185057600080fd5b600760008981526020019081526020016000208054806020026020016040519081016040528092919081815260200182805480156118ad57602002820191906000526020600020905b815481526020019060010190808311611899575b5050505050925082878151811015156118c257fe5b9060200190602002015191506008828154811015156118dd57fe5b90600052602060002090600202016000016008838154811015156118fd57fe5b906000526020600020906002020160010160009054906101000a900463ffffffff1660088481548110151561192e57fe5b906000526020600020906002020160010160049054906101000a900463ffffffff16828054600181600116156101000203166002900480601f0160208091040260200160405190810160405280929190818152602001828054600181600116156101000203166002900480156119e55780601f106119ba576101008083540402835291602001916119e5565b820191906000526020600020905b8154815290600101906020018083116119c857829003601f168201915b505050505092509550955095505050509250925092565b6000600280549050905090565b6000600480549050905090565b6000806002805490501415611a2e5760009050611adb565b8173ffffffffffffffffffffffffffffffffffffffff166002600160008573ffffffffffffffffffffffffffffffffffffffff1673ffffffffffffffffffffffffffffffffffffffff16815260200190815260200160002060020154815481101515611a9657fe5b9060005260206000200160009054906101000a900473ffffffffffffffffffffffffffffffffffffffff1673ffffffffffffffffffffffffffffffffffffffff161490505b919050565b600060608260008110151515611af557600080fd5b60076000858152602001908152602001600020805480602002602001604051908101604052809291908181526020018280548015611b5257602002820191906000526020600020905b815481526020019060010190808311611b3e575b50505050509150815192505050919050565b6000809054906101000a900473ffffffffffffffffffffffffffffffffffffffff1673ffffffffffffffffffffffffffffffffffffffff163373ffffffffffffffffffffffffffffffffffffffff16141515611bbf57600080fd5b611bc881611f06565b50565b6000823373ffffffffffffffffffffffffffffffffffffffff168173ffffffffffffffffffffffffffffffffffffffff16141515611c0857600080fd5b611c11836113be565b1515611c1c57600080fd5b6001600484815481101515611c2d57fe5b906000526020600020906003020160020160049054906101000a900463ffffffff1601915081600484815481101515611c6257fe5b906000526020600020906003020160020160046101000a81548163ffffffff021916908363ffffffff1602179055507fa6e9d96aeca73e2082656d55153203d9cbd1271c9702dedfb70e39662d7c448482604051808263ffffffff16815260200191505060405180910390a150505050565b60006060600060016000600286815481101515611ced57fe5b9060005260206000200160009054906101000a900473ffffffffffffffffffffffffffffffffffffffff1673ffffffffffffffffffffffffffffffffffffffff1673ffffffffffffffffffffffffffffffffffffffff16815260200190815260200160002060000160009054906101000a900463ffffffff1660016000600287815481101515611d7957fe5b9060005260206000200160009054906101000a900473ffffffffffffffffffffffffffffffffffffffff1673ffffffffffffffffffffffffffffffffffffffff1673ffffffffffffffffffffffffffffffffffffffff16815260200190815260200160002060010160016000600288815481101515611df457fe5b9060005260206000200160009054906101000a900473ffffffffffffffffffffffffffffffffffffffff1673ffffffffffffffffffffffffffffffffffffffff1673ffffffffffffffffffffffffffffffffffffffff16815260200190815260200160002060020154818054600181600116156101000203166002900480601f016020809104026020016040519081016040528092919081815260200182805460018160011615610100020316600290048015611ef25780601f10611ec757610100808354040283529160200191611ef2565b820191906000526020600020905b815481529060010190602001808311611ed557829003601f168201915b505050505091509250925092509193909250565b600073ffffffffffffffffffffffffffffffffffffffff168173ffffffffffffffffffffffffffffffffffffffff1614151515611f4257600080fd5b8073ffffffffffffffffffffffffffffffffffffffff166000809054906101000a900473ffffffffffffffffffffffffffffffffffffffff1673ffffffffffffffffffffffffffffffffffffffff167f8be0079c531659141344cd1fd0a4f28419497f9722a3daafe3b4186f6b6457e060405160405180910390a3806000806101000a81548173ffffffffffffffffffffffffffffffffffffffff021916908373ffffffffffffffffffffffffffffffffffffffff16021790555050565b828054600181600116156101000203166002900490600052602060002090601f016020900481019282601f1061204157805160ff191683800117855561206f565b8280016001018555821561206f579182015b8281111561206e578251825591602001919060010190612053565b5b50905061207c9190612080565b5090565b6120a291905b8082111561209e576000816000905550600101612086565b5090565b905600a165627a7a7230582074f26147a5d1c0ea91cf894f65864c4ebdba243ecaf44e144571edbadbb993210029",
  "source": "pragma solidity ^0.4.23;\r\nimport \"./BoardPost.sol\";\r\n\r\ncontract BoardReply is BoardPost {\r\n    event OnReplied();\r\n    \r\n    struct Reply {\r\n        string content;\r\n        uint32 like;\r\n        uint32 dislike;\r\n    }\r\n\r\n    mapping(address => uint[]) private userReplies;\r\n    mapping(uint => uint[]) private postIdToReplyIds;\r\n    mapping(uint => uint[]) private replyIdToReplyIds;\r\n    Reply[] private replies;\r\n\r\n    function getReplyFromPost(uint _postId, uint _index) public view validateId(_postId) returns(string, uint32, uint32) {\r\n        uint[] memory replyIds = postIdToReplyIds[_postId];\r\n        uint replyId = replyIds[_index];\r\n        return (replies[replyId].content, replies[replyId].like, replies[replyId].dislike);\r\n    }\r\n\r\n    function getReplyFromReply(uint _replyId, uint _index) public view validateId(_replyId) returns(string, uint32, uint32) {\r\n        uint[] memory replyIds = replyIdToReplyIds[_replyId];\r\n        uint replyId = replyIds[_index];\r\n        return (replies[replyId].content, replies[replyId].like, replies[replyId].dislike);\r\n    }\r\n\r\n    function getReplyCountFromPost(uint _postId) public view validateId(_postId) returns(uint){\r\n        uint[] memory replyIds = postIdToReplyIds[_postId];\r\n        return replyIds.length;\r\n    }\r\n\r\n    function getReplyCountFromReply(uint _replyId) public view validateId(_replyId) returns(uint){\r\n        uint[] memory replyIds = replyIdToReplyIds[_replyId];\r\n        return replyIds.length;\r\n    }\r\n\r\n    function writeReplyToPost(address _sender, uint _postId, string _content) public validateId(_postId) onlySender(_sender) {\r\n        uint replyLength = replies.push(Reply(_content, 0, 0));\r\n        postIdToReplyIds[_postId].push(replyLength - 1);\r\n        emit OnReplied();\r\n    }\r\n\r\n    function writeReplyToReply(address _sender, uint _replyId, string _content) public validateId(_replyId) onlySender(_sender){\r\n        uint replyLength = replies.push(Reply(_content, 0, 0));\r\n        replyIdToReplyIds[_replyId].push(replyLength - 1);\r\n        emit OnReplied();\r\n    }\r\n}",
  "sourcePath": "C:\\Users\\bkoh\\Documents\\git_projects\\etherboard\\contracts\\BoardReply.sol",
  "compiler": {
    "name": "solc",
    "version": "0.4.24+commit.e67f0147.Emscripten.clang"
  },
  "schemaVersion": "2.0.0",
  "updatedAt": "2018-06-17T14:49:52.420Z"
}