{
  "contractName": "BoardPost",
  "abi": [
    {
      "constant": true,
      "inputs": [
        {
          "name": "_userAddress",
          "type": "address"
        }
      ],
      "name": "getUser",
      "outputs": [
        {
          "name": "",
          "type": "uint32"
        },
        {
          "name": "",
          "type": "string"
        },
        {
          "name": "",
          "type": "uint256"
        }
      ],
      "payable": false,
      "stateMutability": "view",
      "type": "function"
    },
    {
      "constant": false,
      "inputs": [],
      "name": "renounceOwnership",
      "outputs": [],
      "payable": false,
      "stateMutability": "nonpayable",
      "type": "function"
    },
    {
      "constant": true,
      "inputs": [],
      "name": "owner",
      "outputs": [
        {
          "name": "",
          "type": "address"
        }
      ],
      "payable": false,
      "stateMutability": "view",
      "type": "function"
    },
    {
      "constant": true,
      "inputs": [],
      "name": "getUserCount",
      "outputs": [
        {
          "name": "",
          "type": "uint256"
        }
      ],
      "payable": false,
      "stateMutability": "view",
      "type": "function"
    },
    {
      "constant": true,
      "inputs": [
        {
          "name": "_userAddress",
          "type": "address"
        }
      ],
      "name": "existUser",
      "outputs": [
        {
          "name": "isExist",
          "type": "bool"
        }
      ],
      "payable": false,
      "stateMutability": "view",
      "type": "function"
    },
    {
      "constant": false,
      "inputs": [
        {
          "name": "_newOwner",
          "type": "address"
        }
      ],
      "name": "transferOwnership",
      "outputs": [],
      "payable": false,
      "stateMutability": "nonpayable",
      "type": "function"
    },
    {
      "constant": true,
      "inputs": [
        {
          "name": "_userIndex",
          "type": "uint256"
        }
      ],
      "name": "getUserByIndex",
      "outputs": [
        {
          "name": "",
          "type": "uint32"
        },
        {
          "name": "",
          "type": "string"
        },
        {
          "name": "",
          "type": "uint256"
        }
      ],
      "payable": false,
      "stateMutability": "view",
      "type": "function"
    },
    {
      "anonymous": false,
      "inputs": [
        {
          "indexed": false,
          "name": "_title",
          "type": "string"
        },
        {
          "indexed": false,
          "name": "_content",
          "type": "string"
        }
      ],
      "name": "OnWritten",
      "type": "event"
    },
    {
      "anonymous": false,
      "inputs": [
        {
          "indexed": false,
          "name": "count",
          "type": "uint256"
        }
      ],
      "name": "OnLiked",
      "type": "event"
    },
    {
      "anonymous": false,
      "inputs": [
        {
          "indexed": false,
          "name": "count",
          "type": "uint256"
        }
      ],
      "name": "OnDisliked",
      "type": "event"
    },
    {
      "anonymous": false,
      "inputs": [],
      "name": "OnReplied",
      "type": "event"
    },
    {
      "anonymous": false,
      "inputs": [
        {
          "indexed": true,
          "name": "previousOwner",
          "type": "address"
        }
      ],
      "name": "OwnershipRenounced",
      "type": "event"
    },
    {
      "anonymous": false,
      "inputs": [
        {
          "indexed": true,
          "name": "previousOwner",
          "type": "address"
        },
        {
          "indexed": true,
          "name": "newOwner",
          "type": "address"
        }
      ],
      "name": "OwnershipTransferred",
      "type": "event"
    },
    {
      "constant": true,
      "inputs": [],
      "name": "getPostCount",
      "outputs": [
        {
          "name": "",
          "type": "uint256"
        }
      ],
      "payable": false,
      "stateMutability": "view",
      "type": "function"
    },
    {
      "constant": true,
      "inputs": [
        {
          "name": "_postId",
          "type": "uint256"
        }
      ],
      "name": "getReplyCount",
      "outputs": [
        {
          "name": "",
          "type": "uint256"
        }
      ],
      "payable": false,
      "stateMutability": "view",
      "type": "function"
    },
    {
      "constant": true,
      "inputs": [
        {
          "name": "_index",
          "type": "uint256"
        }
      ],
      "name": "getPost",
      "outputs": [
        {
          "name": "",
          "type": "uint256"
        },
        {
          "name": "",
          "type": "string"
        },
        {
          "name": "",
          "type": "string"
        },
        {
          "name": "",
          "type": "uint32"
        },
        {
          "name": "",
          "type": "uint32"
        },
        {
          "name": "",
          "type": "uint256"
        }
      ],
      "payable": false,
      "stateMutability": "view",
      "type": "function"
    },
    {
      "constant": true,
      "inputs": [
        {
          "name": "_id",
          "type": "uint256"
        }
      ],
      "name": "getPostById",
      "outputs": [
        {
          "name": "",
          "type": "uint256"
        },
        {
          "name": "",
          "type": "string"
        },
        {
          "name": "",
          "type": "string"
        },
        {
          "name": "",
          "type": "uint32"
        },
        {
          "name": "",
          "type": "uint32"
        },
        {
          "name": "",
          "type": "uint256"
        }
      ],
      "payable": false,
      "stateMutability": "view",
      "type": "function"
    },
    {
      "constant": true,
      "inputs": [
        {
          "name": "_parentId",
          "type": "uint256"
        },
        {
          "name": "_index",
          "type": "uint256"
        }
      ],
      "name": "getReply",
      "outputs": [
        {
          "name": "",
          "type": "uint256"
        },
        {
          "name": "",
          "type": "string"
        },
        {
          "name": "",
          "type": "string"
        },
        {
          "name": "",
          "type": "uint32"
        },
        {
          "name": "",
          "type": "uint32"
        },
        {
          "name": "",
          "type": "uint256"
        }
      ],
      "payable": false,
      "stateMutability": "view",
      "type": "function"
    },
    {
      "constant": false,
      "inputs": [
        {
          "name": "_sender",
          "type": "address"
        },
        {
          "name": "_title",
          "type": "string"
        },
        {
          "name": "_content",
          "type": "string"
        }
      ],
      "name": "writePost",
      "outputs": [],
      "payable": false,
      "stateMutability": "nonpayable",
      "type": "function"
    },
    {
      "constant": false,
      "inputs": [
        {
          "name": "_sender",
          "type": "address"
        },
        {
          "name": "_parentId",
          "type": "uint256"
        },
        {
          "name": "_content",
          "type": "string"
        }
      ],
      "name": "writeReply",
      "outputs": [],
      "payable": false,
      "stateMutability": "nonpayable",
      "type": "function"
    },
    {
      "constant": false,
      "inputs": [
        {
          "name": "_sender",
          "type": "address"
        },
        {
          "name": "_postId",
          "type": "uint256"
        }
      ],
      "name": "likePost",
      "outputs": [],
      "payable": false,
      "stateMutability": "nonpayable",
      "type": "function"
    },
    {
      "constant": false,
      "inputs": [
        {
          "name": "_sender",
          "type": "address"
        },
        {
          "name": "_postId",
          "type": "uint256"
        }
      ],
      "name": "dislikePost",
      "outputs": [],
      "payable": false,
      "stateMutability": "nonpayable",
      "type": "function"
    },
    {
      "constant": true,
      "inputs": [
        {
          "name": "_postId",
          "type": "uint256"
        }
      ],
      "name": "existPost",
      "outputs": [
        {
          "name": "isExist",
          "type": "bool"
        }
      ],
      "payable": false,
      "stateMutability": "view",
      "type": "function"
    },
    {
      "constant": true,
      "inputs": [
        {
          "name": "_postIndex",
          "type": "uint256"
        }
      ],
      "name": "existPostIndex",
      "outputs": [
        {
          "name": "isExist",
          "type": "bool"
        }
      ],
      "payable": false,
      "stateMutability": "view",
      "type": "function"
    }
  ],
  "bytecode": "0x6080604052336000806101000a81548173ffffffffffffffffffffffffffffffffffffffff021916908373ffffffffffffffffffffffffffffffffffffffff16021790555061217d806100536000396000f3006080604052600436106100fc576000357c0100000000000000000000000000000000000000000000000000000000900463ffffffff1680631e4462181461010157806340731c24146101d05780634835152914610316578063498122ff1461036357806364e95895146103a85780636f77926b146104ee578063715018a6146105c45780638da5cb5b146105db578063a092ef1214610632578063a599292714610782578063b5cb15f714610815578063bcc9540714610840578063da9c6a461461086b578063e42954d9146108ac578063f2fde38b14610907578063fa00eb8d1461094a578063ff5d32fe14610997578063ff8777ab14610a57575b600080fd5b34801561010d57600080fd5b506101ce600480360381019080803573ffffffffffffffffffffffffffffffffffffffff169060200190929190803590602001908201803590602001908080601f0160208091040260200160405190810160405280939291908181526020018383808284378201915050505050509192919290803590602001908201803590602001908080601f0160208091040260200160405190810160405280939291908181526020018383808284378201915050505050509192919290505050610a9c565b005b3480156101dc57600080fd5b506101fb60048036038101908080359060200190929190505050610d7d565b6040518087815260200180602001806020018663ffffffff1663ffffffff1681526020018563ffffffff1663ffffffff168152602001848152602001838103835288818151815260200191508051906020019080838360005b8381101561026f578082015181840152602081019050610254565b50505050905090810190601f16801561029c5780820380516001836020036101000a031916815260200191505b50838103825287818151815260200191508051906020019080838360005b838110156102d55780820151818401526020810190506102ba565b50505050905090810190601f1680156103025780820380516001836020036101000a031916815260200191505b509850505050505050505060405180910390f35b34801561032257600080fd5b50610361600480360381019080803573ffffffffffffffffffffffffffffffffffffffff16906020019092919080359060200190929190505050610fca565b005b34801561036f57600080fd5b5061038e600480360381019080803590602001909291905050506110d3565b604051808215151515815260200191505060405180910390f35b3480156103b457600080fd5b506103d360048036038101908080359060200190929190505050611102565b6040518087815260200180602001806020018663ffffffff1663ffffffff1681526020018563ffffffff1663ffffffff168152602001848152602001838103835288818151815260200191508051906020019080838360005b8381101561044757808201518184015260208101905061042c565b50505050905090810190601f1680156104745780820380516001836020036101000a031916815260200191505b50838103825287818151815260200191508051906020019080838360005b838110156104ad578082015181840152602081019050610492565b50505050905090810190601f1680156104da5780820380516001836020036101000a031916815260200191505b509850505050505050505060405180910390f35b3480156104fa57600080fd5b5061052f600480360381019080803573ffffffffffffffffffffffffffffffffffffffff169060200190929190505050611331565b604051808463ffffffff1663ffffffff16815260200180602001838152602001828103825284818151815260200191508051906020019080838360005b8381101561058757808201518184015260208101905061056c565b50505050905090810190601f1680156105b45780820380516001836020036101000a031916815260200191505b5094505050505060405180910390f35b3480156105d057600080fd5b506105d96114cb565b005b3480156105e757600080fd5b506105f06115cd565b604051808273ffffffffffffffffffffffffffffffffffffffff1673ffffffffffffffffffffffffffffffffffffffff16815260200191505060405180910390f35b34801561063e57600080fd5b5061066760048036038101908080359060200190929190803590602001909291905050506115f2565b6040518087815260200180602001806020018663ffffffff1663ffffffff1681526020018563ffffffff1663ffffffff168152602001848152602001838103835288818151815260200191508051906020019080838360005b838110156106db5780820151818401526020810190506106c0565b50505050905090810190601f1680156107085780820380516001836020036101000a031916815260200191505b50838103825287818151815260200191508051906020019080838360005b83811015610741578082015181840152602081019050610726565b50505050905090810190601f16801561076e5780820380516001836020036101000a031916815260200191505b509850505050505050505060405180910390f35b34801561078e57600080fd5b50610813600480360381019080803573ffffffffffffffffffffffffffffffffffffffff16906020019092919080359060200190929190803590602001908201803590602001908080601f01602080910402602001604051908101604052809392919081815260200183838082843782019150505050505091929192905050506118a6565b005b34801561082157600080fd5b5061082a611add565b6040518082815260200191505060405180910390f35b34801561084c57600080fd5b50610855611aea565b6040518082815260200191505060405180910390f35b34801561087757600080fd5b5061089660048036038101908080359060200190929190505050611af7565b6040518082815260200191505060405180910390f35b3480156108b857600080fd5b506108ed600480360381019080803573ffffffffffffffffffffffffffffffffffffffff169060200190929190505050611b17565b604051808215151515815260200191505060405180910390f35b34801561091357600080fd5b50610948600480360381019080803573ffffffffffffffffffffffffffffffffffffffff169060200190929190505050611be1565b005b34801561095657600080fd5b50610995600480360381019080803573ffffffffffffffffffffffffffffffffffffffff16906020019092919080359060200190929190505050611c48565b005b3480156109a357600080fd5b506109c260048036038101908080359060200190929190505050611d51565b604051808463ffffffff1663ffffffff16815260200180602001838152602001828103825284818151815260200191508051906020019080838360005b83811015610a1a5780820151818401526020810190506109ff565b50505050905090810190601f168015610a475780820380516001836020036101000a031916815260200191505b5094505050505060405180910390f35b348015610a6357600080fd5b50610a8260048036038101908080359060200190929190505050611f83565b604051808215151515815260200191505060405180910390f35b6000833373ffffffffffffffffffffffffffffffffffffffff168173ffffffffffffffffffffffffffffffffffffffff16141515610ad957600080fd5b600660a060405190810160405280868152602001858152602001600063ffffffff168152602001600063ffffffff16815260200142815250908060018154018082558091505090600182039060005260206000209060040201600090919290919091506000820151816000019080519060200190610b589291906120ac565b506020820151816001019080519060200190610b759291906120ac565b5060408201518160020160006101000a81548163ffffffff021916908363ffffffff16021790555060608201518160020160046101000a81548163ffffffff021916908363ffffffff1602179055506080820151816003015550509150600460008673ffffffffffffffffffffffffffffffffffffffff1673ffffffffffffffffffffffffffffffffffffffff16815260200190815260200160002060018303908060018154018082558091505090600182039060005260206000200160009091929091909150555060036001830390806001815401808255809150509060018203906000526020600020016000909192909190915055507f599bc76856dcd79357a6990b3d382dce3e36c6286673a3bbac1a45c2890f3b498484604051808060200180602001838103835285818151815260200191508051906020019080838360005b83811015610cd4578082015181840152602081019050610cb9565b50505050905090810190601f168015610d015780820380516001836020036101000a031916815260200191505b50838103825284818151815260200191508051906020019080838360005b83811015610d3a578082015181840152602081019050610d1f565b50505050905090810190601f168015610d675780820380516001836020036101000a031916815260200191505b5094505050505060405180910390a15050505050565b6000606080600080600080610d9188611f83565b1515610d9c57600080fd5b600388815481101515610dab57fe5b9060005260206000200154905080600682815481101515610dc857fe5b9060005260206000209060040201600001600683815481101515610de857fe5b9060005260206000209060040201600101600684815481101515610e0857fe5b906000526020600020906004020160020160009054906101000a900463ffffffff16600685815481101515610e3957fe5b906000526020600020906004020160020160049054906101000a900463ffffffff16600686815481101515610e6a57fe5b906000526020600020906004020160030154848054600181600116156101000203166002900480601f016020809104026020016040519081016040528092919081815260200182805460018160011615610100020316600290048015610f115780601f10610ee657610100808354040283529160200191610f11565b820191906000526020600020905b815481529060010190602001808311610ef457829003601f168201915b50505050509450838054600181600116156101000203166002900480601f016020809104026020016040519081016040528092919081815260200182805460018160011615610100020316600290048015610fad5780601f10610f8257610100808354040283529160200191610fad565b820191906000526020600020905b815481529060010190602001808311610f9057829003601f168201915b505050505093509650965096509650965096505091939550919395565b6000823373ffffffffffffffffffffffffffffffffffffffff168173ffffffffffffffffffffffffffffffffffffffff1614151561100757600080fd5b611010836110d3565b151561101b57600080fd5b600160068481548110151561102c57fe5b906000526020600020906004020160020160009054906101000a900463ffffffff160191508160068481548110151561106157fe5b906000526020600020906004020160020160006101000a81548163ffffffff021916908363ffffffff1602179055507fe88a0d7ce26163f4da88e3c44000eca254391d94f30b42e4aaa3f589b331381182604051808263ffffffff16815260200191505060405180910390a150505050565b6000806006805490501180156110ed575081600680549050115b6110f85760006110fb565b60015b9050919050565b60006060806000806000611115876110d3565b151561112057600080fd5b8660068881548110151561113057fe5b906000526020600020906004020160000160068981548110151561115057fe5b906000526020600020906004020160010160068a81548110151561117057fe5b906000526020600020906004020160020160009054906101000a900463ffffffff1660068b8154811015156111a157fe5b906000526020600020906004020160020160049054906101000a900463ffffffff1660068c8154811015156111d257fe5b906000526020600020906004020160030154848054600181600116156101000203166002900480601f0160208091040260200160405190810160405280929190818152602001828054600181600116156101000203166002900480156112795780601f1061124e57610100808354040283529160200191611279565b820191906000526020600020905b81548152906001019060200180831161125c57829003601f168201915b50505050509450838054600181600116156101000203166002900480601f0160208091040260200160405190810160405280929190818152602001828054600181600116156101000203166002900480156113155780601f106112ea57610100808354040283529160200191611315565b820191906000526020600020905b8154815290600101906020018083116112f857829003601f168201915b5050505050935095509550955095509550955091939550919395565b60006060600061134084611b17565b1561134a57600080fd5b600160008573ffffffffffffffffffffffffffffffffffffffff1673ffffffffffffffffffffffffffffffffffffffff16815260200190815260200160002060000160009054906101000a900463ffffffff16600160008673ffffffffffffffffffffffffffffffffffffffff1673ffffffffffffffffffffffffffffffffffffffff168152602001908152602001600020600101600160008773ffffffffffffffffffffffffffffffffffffffff1673ffffffffffffffffffffffffffffffffffffffff16815260200190815260200160002060020154818054600181600116156101000203166002900480601f0160208091040260200160405190810160405280929190818152602001828054600181600116156101000203166002900480156114b75780601f1061148c576101008083540402835291602001916114b7565b820191906000526020600020905b81548152906001019060200180831161149a57829003601f168201915b505050505091509250925092509193909250565b6000809054906101000a900473ffffffffffffffffffffffffffffffffffffffff1673ffffffffffffffffffffffffffffffffffffffff163373ffffffffffffffffffffffffffffffffffffffff1614151561152657600080fd5b6000809054906101000a900473ffffffffffffffffffffffffffffffffffffffff1673ffffffffffffffffffffffffffffffffffffffff167ff8df31144d9c2f0f6b59d69b8b98abd5459d07f2742c4df920b25aae33c6482060405160405180910390a260008060006101000a81548173ffffffffffffffffffffffffffffffffffffffff021916908373ffffffffffffffffffffffffffffffffffffffff160217905550565b6000809054906101000a900473ffffffffffffffffffffffffffffffffffffffff1681565b60006060806000806000606060006116098a6110d3565b151561161457600080fd5b600560008b815260200190815260200160002080548060200260200160405190810160405280929190818152602001828054801561167157602002820191906000526020600020905b81548152602001906001019080831161165d575b50505050509150818981518110151561168657fe5b906020019060200201519050806006828154811015156116a257fe5b90600052602060002090600402016000016006838154811015156116c257fe5b90600052602060002090600402016001016006848154811015156116e257fe5b906000526020600020906004020160020160009054906101000a900463ffffffff1660068581548110151561171357fe5b906000526020600020906004020160020160049054906101000a900463ffffffff1660068681548110151561174457fe5b906000526020600020906004020160030154848054600181600116156101000203166002900480601f0160208091040260200160405190810160405280929190818152602001828054600181600116156101000203166002900480156117eb5780601f106117c0576101008083540402835291602001916117eb565b820191906000526020600020905b8154815290600101906020018083116117ce57829003601f168201915b50505050509450838054600181600116156101000203166002900480601f0160208091040260200160405190810160405280929190818152602001828054600181600116156101000203166002900480156118875780601f1061185c57610100808354040283529160200191611887565b820191906000526020600020905b81548152906001019060200180831161186a57829003601f168201915b5050505050935097509750975097509750975050509295509295509295565b600082600081101515156118b957600080fd5b843373ffffffffffffffffffffffffffffffffffffffff168173ffffffffffffffffffffffffffffffffffffffff161415156118f457600080fd5b600660a06040519081016040528060206040519081016040528060008152508152602001868152602001600063ffffffff168152602001600063ffffffff168152602001428152509080600181540180825580915050906001820390600052602060002090600402016000909192909190915060008201518160000190805190602001906119839291906120ac565b5060208201518160010190805190602001906119a09291906120ac565b5060408201518160020160006101000a81548163ffffffff021916908363ffffffff16021790555060608201518160020160046101000a81548163ffffffff021916908363ffffffff1602179055506080820151816003015550509250600460008773ffffffffffffffffffffffffffffffffffffffff1673ffffffffffffffffffffffffffffffffffffffff168152602001908152602001600020600184039080600181540180825580915050906001820390600052602060002001600090919290919091505550600560008681526020019081526020016000206001840390806001815401808255809150509060018203906000526020600020016000909192909190915055507f58277ab523dfb345115994281853ad8ce2052f646dd8a793d4825fd4d34c02c460405160405180910390a1505050505050565b6000600280549050905090565b6000600380549050905090565b600060056000838152602001908152602001600020805490509050919050565b6000806002805490501415611b2f5760009050611bdc565b8173ffffffffffffffffffffffffffffffffffffffff166002600160008573ffffffffffffffffffffffffffffffffffffffff1673ffffffffffffffffffffffffffffffffffffffff16815260200190815260200160002060020154815481101515611b9757fe5b9060005260206000200160009054906101000a900473ffffffffffffffffffffffffffffffffffffffff1673ffffffffffffffffffffffffffffffffffffffff161490505b919050565b6000809054906101000a900473ffffffffffffffffffffffffffffffffffffffff1673ffffffffffffffffffffffffffffffffffffffff163373ffffffffffffffffffffffffffffffffffffffff16141515611c3c57600080fd5b611c4581611fb2565b50565b6000823373ffffffffffffffffffffffffffffffffffffffff168173ffffffffffffffffffffffffffffffffffffffff16141515611c8557600080fd5b611c8e836110d3565b1515611c9957600080fd5b6001600684815481101515611caa57fe5b906000526020600020906004020160020160049054906101000a900463ffffffff1601915081600684815481101515611cdf57fe5b906000526020600020906004020160020160046101000a81548163ffffffff021916908363ffffffff1602179055507fa6e9d96aeca73e2082656d55153203d9cbd1271c9702dedfb70e39662d7c448482604051808263ffffffff16815260200191505060405180910390a150505050565b60006060600060016000600286815481101515611d6a57fe5b9060005260206000200160009054906101000a900473ffffffffffffffffffffffffffffffffffffffff1673ffffffffffffffffffffffffffffffffffffffff1673ffffffffffffffffffffffffffffffffffffffff16815260200190815260200160002060000160009054906101000a900463ffffffff1660016000600287815481101515611df657fe5b9060005260206000200160009054906101000a900473ffffffffffffffffffffffffffffffffffffffff1673ffffffffffffffffffffffffffffffffffffffff1673ffffffffffffffffffffffffffffffffffffffff16815260200190815260200160002060010160016000600288815481101515611e7157fe5b9060005260206000200160009054906101000a900473ffffffffffffffffffffffffffffffffffffffff1673ffffffffffffffffffffffffffffffffffffffff1673ffffffffffffffffffffffffffffffffffffffff16815260200190815260200160002060020154818054600181600116156101000203166002900480601f016020809104026020016040519081016040528092919081815260200182805460018160011615610100020316600290048015611f6f5780601f10611f4457610100808354040283529160200191611f6f565b820191906000526020600020905b815481529060010190602001808311611f5257829003601f168201915b505050505091509250925092509193909250565b600080600380549050118015611f9d575081600380549050115b611fa8576000611fab565b60015b9050919050565b600073ffffffffffffffffffffffffffffffffffffffff168173ffffffffffffffffffffffffffffffffffffffff1614151515611fee57600080fd5b8073ffffffffffffffffffffffffffffffffffffffff166000809054906101000a900473ffffffffffffffffffffffffffffffffffffffff1673ffffffffffffffffffffffffffffffffffffffff167f8be0079c531659141344cd1fd0a4f28419497f9722a3daafe3b4186f6b6457e060405160405180910390a3806000806101000a81548173ffffffffffffffffffffffffffffffffffffffff021916908373ffffffffffffffffffffffffffffffffffffffff16021790555050565b828054600181600116156101000203166002900490600052602060002090601f016020900481019282601f106120ed57805160ff191683800117855561211b565b8280016001018555821561211b579182015b8281111561211a5782518255916020019190600101906120ff565b5b509050612128919061212c565b5090565b61214e91905b8082111561214a576000816000905550600101612132565b5090565b905600a165627a7a72305820a3ecc4da2333b6240f783e31ef33e3a7eba7165f5dc11e6acff99517be9198f20029",
  "source": "pragma solidity ^0.4.23;\r\nimport \"./BoardUser.sol\";\r\n\r\ncontract BoardPost is BoardUser {\r\n    event OnWritten(string _title, string _content);\r\n    event OnLiked(uint count);\r\n    event OnDisliked(uint count);\r\n    event OnReplied();\r\n\r\n    struct Post {\r\n        string title;\r\n        string content;\r\n        uint32 like;\r\n        uint32 dislike;\r\n        uint timestamp;\r\n    }\r\n\r\n    uint[] private onlyPosts;\r\n    mapping(address => uint[]) private userPosts;\r\n    mapping(uint => uint[]) private IdToReplyIds;\r\n    Post[] private posts;\r\n\r\n    function getPostCount() public view returns(uint) {\r\n        return onlyPosts.length;\r\n    }\r\n\r\n    function getReplyCount(uint _postId) public view returns(uint){\r\n        return IdToReplyIds[_postId].length;\r\n    }\r\n\r\n    function getPost(uint _index) public view returns(uint, string, string, uint32, uint32, uint) {\r\n        if(!existPostIndex(_index)) revert();\r\n        uint postId = onlyPosts[_index];\r\n\r\n        return (\r\n            postId,\r\n            posts[postId].title,\r\n            posts[postId].content,\r\n            posts[postId].like,\r\n            posts[postId].dislike,\r\n            posts[postId].timestamp\r\n        );\r\n    }\r\n\r\n    function getPostById(uint _id) public view returns(uint, string, string, uint32, uint32, uint) {\r\n        if(!existPost(_id)) revert();\r\n\r\n        return (\r\n            _id,\r\n            posts[_id].title,\r\n            posts[_id].content,\r\n            posts[_id].like,\r\n            posts[_id].dislike,\r\n            posts[_id].timestamp\r\n        );\r\n    }\r\n\r\n    function getReply(uint _parentId, uint _index)public view returns(uint, string, string, uint32, uint32, uint) {\r\n        if(!existPost(_parentId)) revert();\r\n        uint[] memory replyIds = IdToReplyIds[_parentId];\r\n        uint postId = replyIds[_index];\r\n\r\n        return (\r\n            postId,\r\n            posts[postId].title,\r\n            posts[postId].content,\r\n            posts[postId].like,\r\n            posts[postId].dislike,\r\n            posts[postId].timestamp\r\n        );\r\n    }\r\n\r\n    function writePost(address _sender, string _title, string _content) public onlySender(_sender) {\r\n        uint postLength = posts.push(Post(_title, _content, 0, 0, now));\r\n        userPosts[_sender].push(postLength - 1);\r\n        onlyPosts.push(postLength - 1);\r\n        emit OnWritten(_title, _content);\r\n    }\r\n\r\n    function writeReply(address _sender, uint _parentId, string _content) public validateId(_parentId) onlySender(_sender) {\r\n        uint replyLength = posts.push(Post(\"\", _content, 0, 0, now));\r\n        userPosts[_sender].push(replyLength - 1);\r\n        IdToReplyIds[_parentId].push(replyLength - 1);\r\n        emit OnReplied();\r\n    }\r\n\r\n    function likePost(address _sender,uint _postId) public onlySender(_sender){\r\n        if(!existPost(_postId)) revert();\r\n\r\n        uint32 count = posts[_postId].like + 1;\r\n        posts[_postId].like = count;\r\n        emit OnLiked(count);\r\n    }\r\n\r\n    function dislikePost(address _sender,uint _postId) public onlySender(_sender){\r\n        if(!existPost(_postId)) revert();\r\n\r\n        uint32 count = posts[_postId].dislike + 1;\r\n        posts[_postId].dislike = count;\r\n        emit OnDisliked(count);\r\n    }\r\n\r\n    function existPost(uint _postId) public view returns(bool isExist){\r\n        return (posts.length > 0 && posts.length > _postId) ? true : false;\r\n    }\r\n\r\n    function existPostIndex(uint _postIndex) public view returns(bool isExist){\r\n        return (onlyPosts.length > 0 && onlyPosts.length > _postIndex) ? true : false;\r\n    }\r\n}",
  "sourcePath": "C:\\Users\\bkoh\\Documents\\git_projects\\etherboard\\contracts\\BoardPost.sol",
  "compiler": {
    "name": "solc",
    "version": "0.4.24+commit.e67f0147.Emscripten.clang"
  },
  "schemaVersion": "2.0.0",
  "updatedAt": "2018-07-08T13:28:36.687Z"
}