{
  "contractName": "BoardReply",
  "abi": [
    {
      "constant": true,
      "inputs": [],
      "name": "postCounter",
      "outputs": [
        {
          "name": "",
          "type": "uint256"
        }
      ],
      "payable": false,
      "stateMutability": "view",
      "type": "function"
    },
    {
      "constant": true,
      "inputs": [
        {
          "name": "",
          "type": "uint256"
        }
      ],
      "name": "posts",
      "outputs": [
        {
          "name": "title",
          "type": "string"
        },
        {
          "name": "data",
          "type": "string"
        },
        {
          "name": "like",
          "type": "uint32"
        },
        {
          "name": "dislike",
          "type": "uint32"
        }
      ],
      "payable": false,
      "stateMutability": "view",
      "type": "function"
    },
    {
      "constant": true,
      "inputs": [
        {
          "name": "_index",
          "type": "uint256"
        }
      ],
      "name": "getPost",
      "outputs": [
        {
          "name": "",
          "type": "string"
        },
        {
          "name": "",
          "type": "string"
        },
        {
          "name": "",
          "type": "uint32"
        },
        {
          "name": "",
          "type": "uint32"
        }
      ],
      "payable": false,
      "stateMutability": "view",
      "type": "function"
    },
    {
      "constant": false,
      "inputs": [],
      "name": "renounceOwnership",
      "outputs": [],
      "payable": false,
      "stateMutability": "nonpayable",
      "type": "function"
    },
    {
      "constant": false,
      "inputs": [
        {
          "name": "_index",
          "type": "uint256"
        }
      ],
      "name": "likePost",
      "outputs": [],
      "payable": false,
      "stateMutability": "nonpayable",
      "type": "function"
    },
    {
      "constant": false,
      "inputs": [
        {
          "name": "_index",
          "type": "uint256"
        }
      ],
      "name": "dislikePost",
      "outputs": [],
      "payable": false,
      "stateMutability": "nonpayable",
      "type": "function"
    },
    {
      "constant": true,
      "inputs": [],
      "name": "getPostsCount",
      "outputs": [
        {
          "name": "",
          "type": "uint256"
        }
      ],
      "payable": false,
      "stateMutability": "view",
      "type": "function"
    },
    {
      "constant": false,
      "inputs": [
        {
          "name": "_title",
          "type": "string"
        },
        {
          "name": "_data",
          "type": "string"
        }
      ],
      "name": "writePost",
      "outputs": [],
      "payable": false,
      "stateMutability": "nonpayable",
      "type": "function"
    },
    {
      "constant": true,
      "inputs": [],
      "name": "owner",
      "outputs": [
        {
          "name": "",
          "type": "address"
        }
      ],
      "payable": false,
      "stateMutability": "view",
      "type": "function"
    },
    {
      "constant": true,
      "inputs": [
        {
          "name": "",
          "type": "uint256"
        }
      ],
      "name": "postIdToOwner",
      "outputs": [
        {
          "name": "",
          "type": "address"
        }
      ],
      "payable": false,
      "stateMutability": "view",
      "type": "function"
    },
    {
      "constant": false,
      "inputs": [
        {
          "name": "_newOwner",
          "type": "address"
        }
      ],
      "name": "transferOwnership",
      "outputs": [],
      "payable": false,
      "stateMutability": "nonpayable",
      "type": "function"
    },
    {
      "anonymous": false,
      "inputs": [
        {
          "indexed": false,
          "name": "_title",
          "type": "string"
        },
        {
          "indexed": false,
          "name": "_postId",
          "type": "uint256"
        }
      ],
      "name": "OnReplied",
      "type": "event"
    },
    {
      "anonymous": false,
      "inputs": [
        {
          "indexed": false,
          "name": "_title",
          "type": "string"
        },
        {
          "indexed": false,
          "name": "_data",
          "type": "string"
        }
      ],
      "name": "OnWritten",
      "type": "event"
    },
    {
      "anonymous": false,
      "inputs": [
        {
          "indexed": false,
          "name": "count",
          "type": "uint256"
        }
      ],
      "name": "OnLiked",
      "type": "event"
    },
    {
      "anonymous": false,
      "inputs": [
        {
          "indexed": false,
          "name": "count",
          "type": "uint256"
        }
      ],
      "name": "OnDisliked",
      "type": "event"
    },
    {
      "anonymous": false,
      "inputs": [
        {
          "indexed": true,
          "name": "previousOwner",
          "type": "address"
        }
      ],
      "name": "OwnershipRenounced",
      "type": "event"
    },
    {
      "anonymous": false,
      "inputs": [
        {
          "indexed": true,
          "name": "previousOwner",
          "type": "address"
        },
        {
          "indexed": true,
          "name": "newOwner",
          "type": "address"
        }
      ],
      "name": "OwnershipTransferred",
      "type": "event"
    },
    {
      "constant": true,
      "inputs": [
        {
          "name": "_postId",
          "type": "uint256"
        },
        {
          "name": "_index",
          "type": "uint256"
        }
      ],
      "name": "getReply",
      "outputs": [
        {
          "name": "",
          "type": "string"
        }
      ],
      "payable": false,
      "stateMutability": "view",
      "type": "function"
    },
    {
      "constant": true,
      "inputs": [
        {
          "name": "_postId",
          "type": "uint256"
        }
      ],
      "name": "getReplyCount",
      "outputs": [
        {
          "name": "",
          "type": "uint256"
        }
      ],
      "payable": false,
      "stateMutability": "view",
      "type": "function"
    },
    {
      "constant": false,
      "inputs": [
        {
          "name": "_postId",
          "type": "uint256"
        },
        {
          "name": "_data",
          "type": "string"
        }
      ],
      "name": "writeReply",
      "outputs": [],
      "payable": false,
      "stateMutability": "nonpayable",
      "type": "function"
    }
  ],
  "bytecode": "0x6080604052336000806101000a81548173ffffffffffffffffffffffffffffffffffffffff021916908373ffffffffffffffffffffffffffffffffffffffff1602179055506116b8806100536000396000f3006080604052600436106100d0576000357c0100000000000000000000000000000000000000000000000000000000900463ffffffff16806309b3d75e146100d55780630b1e7f831461010057806340731c24146102385780636440110f14610370578063715018a6146103e3578063725009d3146103fa578063732fa7c71461042757806383624882146104545780638d3f486d1461047f5780638da5cb5b1461052e578063932ad56114610585578063a092ef12146105f2578063da9c6a46146106a2578063f2fde38b146106e3575b600080fd5b3480156100e157600080fd5b506100ea610726565b6040518082815260200191505060405180910390f35b34801561010c57600080fd5b5061012b6004803603810190808035906020019092919050505061072c565b6040518080602001806020018563ffffffff1663ffffffff1681526020018463ffffffff1663ffffffff168152602001838103835287818151815260200191508051906020019080838360005b83811015610193578082015181840152602081019050610178565b50505050905090810190601f1680156101c05780820380516001836020036101000a031916815260200191505b50838103825286818151815260200191508051906020019080838360005b838110156101f95780820151818401526020810190506101de565b50505050905090810190601f1680156102265780820380516001836020036101000a031916815260200191505b50965050505050505060405180910390f35b34801561024457600080fd5b50610263600480360381019080803590602001909291905050506108bb565b6040518080602001806020018563ffffffff1663ffffffff1681526020018463ffffffff1663ffffffff168152602001838103835287818151815260200191508051906020019080838360005b838110156102cb5780820151818401526020810190506102b0565b50505050905090810190601f1680156102f85780820380516001836020036101000a031916815260200191505b50838103825286818151815260200191508051906020019080838360005b83811015610331578082015181840152602081019050610316565b50505050905090810190601f16801561035e5780820380516001836020036101000a031916815260200191505b50965050505050505060405180910390f35b34801561037c57600080fd5b506103e160048036038101908080359060200190929190803590602001908201803590602001908080601f0160208091040260200160405190810160405280939291908181526020018383808284378201915050505050509192919290505050610aaa565b005b3480156103ef57600080fd5b506103f8610c34565b005b34801561040657600080fd5b5061042560048036038101908080359060200190929190505050610d36565b005b34801561043357600080fd5b5061045260048036038101908080359060200190929190505050610dee565b005b34801561046057600080fd5b50610469610ea6565b6040518082815260200191505060405180910390f35b34801561048b57600080fd5b5061052c600480360381019080803590602001908201803590602001908080601f0160208091040260200160405190810160405280939291908181526020018383808284378201915050505050509192919290803590602001908201803590602001908080601f0160208091040260200160405190810160405280939291908181526020018383808284378201915050505050509192919290505050610eb3565b005b34801561053a57600080fd5b5061054361110e565b604051808273ffffffffffffffffffffffffffffffffffffffff1673ffffffffffffffffffffffffffffffffffffffff16815260200191505060405180910390f35b34801561059157600080fd5b506105b060048036038101908080359060200190929190505050611133565b604051808273ffffffffffffffffffffffffffffffffffffffff1673ffffffffffffffffffffffffffffffffffffffff16815260200191505060405180910390f35b3480156105fe57600080fd5b506106276004803603810190808035906020019092919080359060200190929190505050611166565b6040518080602001828103825283818151815260200191508051906020019080838360005b8381101561066757808201518184015260208101905061064c565b50505050905090810190601f1680156106945780820380516001836020036101000a031916815260200191505b509250505060405180910390f35b3480156106ae57600080fd5b506106cd60048036038101908080359060200190929190505050611303565b6040518082815260200191505060405180910390f35b3480156106ef57600080fd5b50610724600480360381019080803573ffffffffffffffffffffffffffffffffffffffff169060200190929190505050611486565b005b60015481565b60038181548110151561073b57fe5b9060005260206000209060030201600091509050806000018054600181600116156101000203166002900480601f0160208091040260200160405190810160405280929190818152602001828054600181600116156101000203166002900480156107e75780601f106107bc576101008083540402835291602001916107e7565b820191906000526020600020905b8154815290600101906020018083116107ca57829003601f168201915b505050505090806001018054600181600116156101000203166002900480601f0160208091040260200160405190810160405280929190818152602001828054600181600116156101000203166002900480156108855780601f1061085a57610100808354040283529160200191610885565b820191906000526020600020905b81548152906001019060200180831161086857829003601f168201915b5050505050908060020160009054906101000a900463ffffffff16908060020160049054906101000a900463ffffffff16905084565b6060806000806003858154811015156108d057fe5b90600052602060002090600302016000016003868154811015156108f057fe5b906000526020600020906003020160010160038781548110151561091057fe5b906000526020600020906003020160020160009054906101000a900463ffffffff1660038881548110151561094157fe5b906000526020600020906003020160020160049054906101000a900463ffffffff16838054600181600116156101000203166002900480601f0160208091040260200160405190810160405280929190818152602001828054600181600116156101000203166002900480156109f85780601f106109cd576101008083540402835291602001916109f8565b820191906000526020600020905b8154815290600101906020018083116109db57829003601f168201915b50505050509350828054600181600116156101000203166002900480601f016020809104026020016040519081016040528092919081815260200182805460018160011615610100020316600290048015610a945780601f10610a6957610100808354040283529160200191610a94565b820191906000526020600020905b815481529060010190602001808311610a7757829003601f168201915b5050505050925093509350935093509193509193565b8160008110151515610abb57600080fd5b6004600084815260200190815260200160002060408051908101604052803373ffffffffffffffffffffffffffffffffffffffff168152602001848152509080600181540180825580915050906001820390600052602060002090600202016000909192909190915060008201518160000160006101000a81548173ffffffffffffffffffffffffffffffffffffffff021916908373ffffffffffffffffffffffffffffffffffffffff1602179055506020820151816001019080519060200190610b879291906115e7565b505050507f367b7f028be389a597d06042fc8a8f9d7a7826c619a5abe0da8f89bbc76af48582846040518080602001838152602001828103825284818151815260200191508051906020019080838360005b83811015610bf4578082015181840152602081019050610bd9565b50505050905090810190601f168015610c215780820380516001836020036101000a031916815260200191505b50935050505060405180910390a1505050565b6000809054906101000a900473ffffffffffffffffffffffffffffffffffffffff1673ffffffffffffffffffffffffffffffffffffffff163373ffffffffffffffffffffffffffffffffffffffff16141515610c8f57600080fd5b6000809054906101000a900473ffffffffffffffffffffffffffffffffffffffff1673ffffffffffffffffffffffffffffffffffffffff167ff8df31144d9c2f0f6b59d69b8b98abd5459d07f2742c4df920b25aae33c6482060405160405180910390a260008060006101000a81548173ffffffffffffffffffffffffffffffffffffffff021916908373ffffffffffffffffffffffffffffffffffffffff160217905550565b60006001600383815481101515610d4957fe5b906000526020600020906003020160020160009054906101000a900463ffffffff1601905080600383815481101515610d7e57fe5b906000526020600020906003020160020160006101000a81548163ffffffff021916908363ffffffff1602179055507fe88a0d7ce26163f4da88e3c44000eca254391d94f30b42e4aaa3f589b331381181604051808263ffffffff16815260200191505060405180910390a15050565b60006001600383815481101515610e0157fe5b906000526020600020906003020160020160049054906101000a900463ffffffff1601905080600383815481101515610e3657fe5b906000526020600020906003020160020160046101000a81548163ffffffff021916908363ffffffff1602179055507fa6e9d96aeca73e2082656d55153203d9cbd1271c9702dedfb70e39662d7c448481604051808263ffffffff16815260200191505060405180910390a15050565b6000600380549050905090565b3360026000600154815260200190815260200160002060006101000a81548173ffffffffffffffffffffffffffffffffffffffff021916908373ffffffffffffffffffffffffffffffffffffffff1602179055506003608060405190810160405280848152602001838152602001600063ffffffff168152602001600063ffffffff16815250908060018154018082558091505090600182039060005260206000209060030201600090919290919091506000820151816000019080519060200190610f809291906115e7565b506020820151816001019080519060200190610f9d9291906115e7565b5060408201518160020160006101000a81548163ffffffff021916908363ffffffff16021790555060608201518160020160046101000a81548163ffffffff021916908363ffffffff1602179055505050506001600081548092919060010191905055507f599bc76856dcd79357a6990b3d382dce3e36c6286673a3bbac1a45c2890f3b498282604051808060200180602001838103835285818151815260200191508051906020019080838360005b8381101561106857808201518184015260208101905061104d565b50505050905090810190601f1680156110955780820380516001836020036101000a031916815260200191505b50838103825284818151815260200191508051906020019080838360005b838110156110ce5780820151818401526020810190506110b3565b50505050905090810190601f1680156110fb5780820380516001836020036101000a031916815260200191505b5094505050505060405180910390a15050565b6000809054906101000a900473ffffffffffffffffffffffffffffffffffffffff1681565b60026020528060005260406000206000915054906101000a900473ffffffffffffffffffffffffffffffffffffffff1681565b606080836000811015151561117a57600080fd5b60046000868152602001908152602001600020805480602002602001604051908101604052809291908181526020016000905b828210156112d757838290600052602060002090600202016040805190810160405290816000820160009054906101000a900473ffffffffffffffffffffffffffffffffffffffff1673ffffffffffffffffffffffffffffffffffffffff1673ffffffffffffffffffffffffffffffffffffffff168152602001600182018054600181600116156101000203166002900480601f0160208091040260200160405190810160405280929190818152602001828054600181600116156101000203166002900480156112bf5780601f10611294576101008083540402835291602001916112bf565b820191906000526020600020905b8154815290600101906020018083116112a257829003601f168201915b505050505081525050815260200190600101906111ad565b50505050915081848151811015156112eb57fe5b90602001906020020151602001519250505092915050565b60006060826000811015151561131857600080fd5b60046000858152602001908152602001600020805480602002602001604051908101604052809291908181526020016000905b8282101561147557838290600052602060002090600202016040805190810160405290816000820160009054906101000a900473ffffffffffffffffffffffffffffffffffffffff1673ffffffffffffffffffffffffffffffffffffffff1673ffffffffffffffffffffffffffffffffffffffff168152602001600182018054600181600116156101000203166002900480601f01602080910402602001604051908101604052809291908181526020018280546001816001161561010002031660029004801561145d5780601f106114325761010080835404028352916020019161145d565b820191906000526020600020905b81548152906001019060200180831161144057829003601f168201915b5050505050815250508152602001906001019061134b565b505050509150815192505050919050565b6000809054906101000a900473ffffffffffffffffffffffffffffffffffffffff1673ffffffffffffffffffffffffffffffffffffffff163373ffffffffffffffffffffffffffffffffffffffff161415156114e157600080fd5b6114ea816114ed565b50565b600073ffffffffffffffffffffffffffffffffffffffff168173ffffffffffffffffffffffffffffffffffffffff161415151561152957600080fd5b8073ffffffffffffffffffffffffffffffffffffffff166000809054906101000a900473ffffffffffffffffffffffffffffffffffffffff1673ffffffffffffffffffffffffffffffffffffffff167f8be0079c531659141344cd1fd0a4f28419497f9722a3daafe3b4186f6b6457e060405160405180910390a3806000806101000a81548173ffffffffffffffffffffffffffffffffffffffff021916908373ffffffffffffffffffffffffffffffffffffffff16021790555050565b828054600181600116156101000203166002900490600052602060002090601f016020900481019282601f1061162857805160ff1916838001178555611656565b82800160010185558215611656579182015b8281111561165557825182559160200191906001019061163a565b5b5090506116639190611667565b5090565b61168991905b8082111561168557600081600090555060010161166d565b5090565b905600a165627a7a72305820c4b8c15cf49b22b55e441513556795261188e27fc25a46b8f54593eae07447c20029",
  "source": "pragma solidity ^0.4.23;\r\nimport \"./BoardPost.sol\";\r\n\r\ncontract BoardReply is BoardPost {\r\n    event OnReplied(string _title, uint _postId);\r\n    \r\n    mapping(uint => Reply[]) postIdToReplies;\r\n\r\n    struct Reply {\r\n        address sender;\r\n        string data;\r\n    }\r\n\r\n    function getReply(uint _postId, uint _index) public view validateId(_postId) returns(string) {\r\n        Reply[] memory replies = postIdToReplies[_postId];\r\n        return (replies[_index].data);\r\n    }\r\n\r\n    function getReplyCount(uint _postId) public view validateId(_postId) returns(uint){\r\n        Reply[] memory replies = postIdToReplies[_postId];\r\n        return replies.length;\r\n    }\r\n\r\n    function writeReply(uint _postId, string _data) public validateId(_postId) {\r\n        postIdToReplies[_postId].push(Reply(msg.sender, _data));\r\n        emit OnReplied(_data, _postId);\r\n    }\r\n}",
  "sourcePath": "C:\\Users\\bkoh\\Documents\\git_projects\\etherboard\\contracts\\BoardReply.sol",
  "compiler": {
    "name": "solc",
    "version": "0.4.24+commit.e67f0147.Emscripten.clang"
  },
  "schemaVersion": "2.0.0",
  "updatedAt": "2018-06-17T09:17:12.717Z"
}