{
  "contractName": "BoardPost",
  "abi": [
    {
      "constant": true,
      "inputs": [
        {
          "name": "_userAddress",
          "type": "address"
        }
      ],
      "name": "getUser",
      "outputs": [
        {
          "name": "",
          "type": "uint32"
        },
        {
          "name": "",
          "type": "string"
        },
        {
          "name": "",
          "type": "uint256"
        }
      ],
      "payable": false,
      "stateMutability": "view",
      "type": "function"
    },
    {
      "constant": false,
      "inputs": [],
      "name": "renounceOwnership",
      "outputs": [],
      "payable": false,
      "stateMutability": "nonpayable",
      "type": "function"
    },
    {
      "constant": true,
      "inputs": [],
      "name": "owner",
      "outputs": [
        {
          "name": "",
          "type": "address"
        }
      ],
      "payable": false,
      "stateMutability": "view",
      "type": "function"
    },
    {
      "constant": true,
      "inputs": [],
      "name": "getUserCount",
      "outputs": [
        {
          "name": "",
          "type": "uint256"
        }
      ],
      "payable": false,
      "stateMutability": "view",
      "type": "function"
    },
    {
      "constant": true,
      "inputs": [
        {
          "name": "_userAddress",
          "type": "address"
        }
      ],
      "name": "existUser",
      "outputs": [
        {
          "name": "isExist",
          "type": "bool"
        }
      ],
      "payable": false,
      "stateMutability": "view",
      "type": "function"
    },
    {
      "constant": false,
      "inputs": [
        {
          "name": "_newOwner",
          "type": "address"
        }
      ],
      "name": "transferOwnership",
      "outputs": [],
      "payable": false,
      "stateMutability": "nonpayable",
      "type": "function"
    },
    {
      "constant": true,
      "inputs": [
        {
          "name": "_userIndex",
          "type": "uint256"
        }
      ],
      "name": "getUserByIndex",
      "outputs": [
        {
          "name": "",
          "type": "uint32"
        },
        {
          "name": "",
          "type": "string"
        },
        {
          "name": "",
          "type": "uint256"
        }
      ],
      "payable": false,
      "stateMutability": "view",
      "type": "function"
    },
    {
      "anonymous": false,
      "inputs": [
        {
          "indexed": false,
          "name": "_title",
          "type": "string"
        },
        {
          "indexed": false,
          "name": "_content",
          "type": "string"
        }
      ],
      "name": "OnWritten",
      "type": "event"
    },
    {
      "anonymous": false,
      "inputs": [
        {
          "indexed": false,
          "name": "count",
          "type": "uint256"
        }
      ],
      "name": "OnLiked",
      "type": "event"
    },
    {
      "anonymous": false,
      "inputs": [
        {
          "indexed": false,
          "name": "count",
          "type": "uint256"
        }
      ],
      "name": "OnDisliked",
      "type": "event"
    },
    {
      "anonymous": false,
      "inputs": [
        {
          "indexed": true,
          "name": "previousOwner",
          "type": "address"
        }
      ],
      "name": "OwnershipRenounced",
      "type": "event"
    },
    {
      "anonymous": false,
      "inputs": [
        {
          "indexed": true,
          "name": "previousOwner",
          "type": "address"
        },
        {
          "indexed": true,
          "name": "newOwner",
          "type": "address"
        }
      ],
      "name": "OwnershipTransferred",
      "type": "event"
    },
    {
      "constant": true,
      "inputs": [],
      "name": "getPostCount",
      "outputs": [
        {
          "name": "",
          "type": "uint256"
        }
      ],
      "payable": false,
      "stateMutability": "view",
      "type": "function"
    },
    {
      "constant": true,
      "inputs": [
        {
          "name": "_index",
          "type": "uint256"
        }
      ],
      "name": "getPost",
      "outputs": [
        {
          "name": "",
          "type": "string"
        },
        {
          "name": "",
          "type": "string"
        },
        {
          "name": "",
          "type": "uint32"
        },
        {
          "name": "",
          "type": "uint32"
        },
        {
          "name": "",
          "type": "uint256"
        }
      ],
      "payable": false,
      "stateMutability": "view",
      "type": "function"
    },
    {
      "constant": false,
      "inputs": [
        {
          "name": "_sender",
          "type": "address"
        },
        {
          "name": "_title",
          "type": "string"
        },
        {
          "name": "_content",
          "type": "string"
        }
      ],
      "name": "writePost",
      "outputs": [],
      "payable": false,
      "stateMutability": "nonpayable",
      "type": "function"
    },
    {
      "constant": false,
      "inputs": [
        {
          "name": "_sender",
          "type": "address"
        },
        {
          "name": "_index",
          "type": "uint256"
        }
      ],
      "name": "likePost",
      "outputs": [],
      "payable": false,
      "stateMutability": "nonpayable",
      "type": "function"
    },
    {
      "constant": false,
      "inputs": [
        {
          "name": "_sender",
          "type": "address"
        },
        {
          "name": "_index",
          "type": "uint256"
        }
      ],
      "name": "dislikePost",
      "outputs": [],
      "payable": false,
      "stateMutability": "nonpayable",
      "type": "function"
    },
    {
      "constant": true,
      "inputs": [
        {
          "name": "_postIndex",
          "type": "uint256"
        }
      ],
      "name": "existPost",
      "outputs": [
        {
          "name": "isExist",
          "type": "bool"
        }
      ],
      "payable": false,
      "stateMutability": "view",
      "type": "function"
    }
  ],
  "bytecode": "0x6080604052336000806101000a81548173ffffffffffffffffffffffffffffffffffffffff021916908373ffffffffffffffffffffffffffffffffffffffff1602179055506115d5806100536000396000f3006080604052600436106100c5576000357c0100000000000000000000000000000000000000000000000000000000900463ffffffff1680631e446218146100ca57806340731c241461019957806348351529146102d8578063498122ff146103255780636f77926b1461036a578063715018a6146104405780638da5cb5b14610457578063b5cb15f7146104ae578063bcc95407146104d9578063e42954d914610504578063f2fde38b1461055f578063fa00eb8d146105a2578063ff5d32fe146105ef575b600080fd5b3480156100d657600080fd5b50610197600480360381019080803573ffffffffffffffffffffffffffffffffffffffff169060200190929190803590602001908201803590602001908080601f0160208091040260200160405190810160405280939291908181526020018383808284378201915050505050509192919290803590602001908201803590602001908080601f01602080910402602001604051908101604052809392919081815260200183838082843782019150505050505091929192905050506106af565b005b3480156101a557600080fd5b506101c460048036038101908080359060200190929190505050610961565b6040518080602001806020018663ffffffff1663ffffffff1681526020018563ffffffff1663ffffffff168152602001848152602001838103835288818151815260200191508051906020019080838360005b83811015610232578082015181840152602081019050610217565b50505050905090810190601f16801561025f5780820380516001836020036101000a031916815260200191505b50838103825287818151815260200191508051906020019080838360005b8381101561029857808201518184015260208101905061027d565b50505050905090810190601f1680156102c55780820380516001836020036101000a031916815260200191505b5097505050505050505060405180910390f35b3480156102e457600080fd5b50610323600480360381019080803573ffffffffffffffffffffffffffffffffffffffff16906020019092919080359060200190929190505050610b8b565b005b34801561033157600080fd5b5061035060048036038101908080359060200190929190505050610c94565b604051808215151515815260200191505060405180910390f35b34801561037657600080fd5b506103ab600480360381019080803573ffffffffffffffffffffffffffffffffffffffff169060200190929190505050610cc3565b604051808463ffffffff1663ffffffff16815260200180602001838152602001828103825284818151815260200191508051906020019080838360005b838110156104035780820151818401526020810190506103e8565b50505050905090810190601f1680156104305780820380516001836020036101000a031916815260200191505b5094505050505060405180910390f35b34801561044c57600080fd5b50610455610e5d565b005b34801561046357600080fd5b5061046c610f5f565b604051808273ffffffffffffffffffffffffffffffffffffffff1673ffffffffffffffffffffffffffffffffffffffff16815260200191505060405180910390f35b3480156104ba57600080fd5b506104c3610f84565b6040518082815260200191505060405180910390f35b3480156104e557600080fd5b506104ee610f91565b6040518082815260200191505060405180910390f35b34801561051057600080fd5b50610545600480360381019080803573ffffffffffffffffffffffffffffffffffffffff169060200190929190505050610f9e565b604051808215151515815260200191505060405180910390f35b34801561056b57600080fd5b506105a0600480360381019080803573ffffffffffffffffffffffffffffffffffffffff169060200190929190505050611068565b005b3480156105ae57600080fd5b506105ed600480360381019080803573ffffffffffffffffffffffffffffffffffffffff169060200190929190803590602001909291905050506110cf565b005b3480156105fb57600080fd5b5061061a600480360381019080803590602001909291905050506111d8565b604051808463ffffffff1663ffffffff16815260200180602001838152602001828103825284818151815260200191508051906020019080838360005b83811015610672578082015181840152602081019050610657565b50505050905090810190601f16801561069f5780820380516001836020036101000a031916815260200191505b5094505050505060405180910390f35b6000833373ffffffffffffffffffffffffffffffffffffffff168173ffffffffffffffffffffffffffffffffffffffff161415156106ec57600080fd5b600460a060405190810160405280868152602001858152602001600063ffffffff168152602001600063ffffffff1681526020014281525090806001815401808255809150509060018203906000526020600020906004020160009091929091909150600082015181600001908051906020019061076b929190611504565b506020820151816001019080519060200190610788929190611504565b5060408201518160020160006101000a81548163ffffffff021916908363ffffffff16021790555060608201518160020160046101000a81548163ffffffff021916908363ffffffff1602179055506080820151816003015550509150600360008673ffffffffffffffffffffffffffffffffffffffff1673ffffffffffffffffffffffffffffffffffffffff1681526020019081526020016000206001830390806001815401808255809150509060018203906000526020600020016000909192909190915055507f599bc76856dcd79357a6990b3d382dce3e36c6286673a3bbac1a45c2890f3b498484604051808060200180602001838103835285818151815260200191508051906020019080838360005b838110156108b857808201518184015260208101905061089d565b50505050905090810190601f1680156108e55780820380516001836020036101000a031916815260200191505b50838103825284818151815260200191508051906020019080838360005b8381101561091e578082015181840152602081019050610903565b50505050905090810190601f16801561094b5780820380516001836020036101000a031916815260200191505b5094505050505060405180910390a15050505050565b606080600080600061097286610c94565b151561097d57600080fd5b60048681548110151561098c57fe5b90600052602060002090600402016000016004878154811015156109ac57fe5b90600052602060002090600402016001016004888154811015156109cc57fe5b906000526020600020906004020160020160009054906101000a900463ffffffff166004898154811015156109fd57fe5b906000526020600020906004020160020160049054906101000a900463ffffffff1660048a815481101515610a2e57fe5b906000526020600020906004020160030154848054600181600116156101000203166002900480601f016020809104026020016040519081016040528092919081815260200182805460018160011615610100020316600290048015610ad55780601f10610aaa57610100808354040283529160200191610ad5565b820191906000526020600020905b815481529060010190602001808311610ab857829003601f168201915b50505050509450838054600181600116156101000203166002900480601f016020809104026020016040519081016040528092919081815260200182805460018160011615610100020316600290048015610b715780601f10610b4657610100808354040283529160200191610b71565b820191906000526020600020905b815481529060010190602001808311610b5457829003601f168201915b505050505093509450945094509450945091939590929450565b6000823373ffffffffffffffffffffffffffffffffffffffff168173ffffffffffffffffffffffffffffffffffffffff16141515610bc857600080fd5b610bd183610c94565b1515610bdc57600080fd5b6001600484815481101515610bed57fe5b906000526020600020906004020160020160009054906101000a900463ffffffff1601915081600484815481101515610c2257fe5b906000526020600020906004020160020160006101000a81548163ffffffff021916908363ffffffff1602179055507fe88a0d7ce26163f4da88e3c44000eca254391d94f30b42e4aaa3f589b331381182604051808263ffffffff16815260200191505060405180910390a150505050565b600080600480549050118015610cae575081600480549050115b610cb9576000610cbc565b60015b9050919050565b600060606000610cd284610f9e565b15610cdc57600080fd5b600160008573ffffffffffffffffffffffffffffffffffffffff1673ffffffffffffffffffffffffffffffffffffffff16815260200190815260200160002060000160009054906101000a900463ffffffff16600160008673ffffffffffffffffffffffffffffffffffffffff1673ffffffffffffffffffffffffffffffffffffffff168152602001908152602001600020600101600160008773ffffffffffffffffffffffffffffffffffffffff1673ffffffffffffffffffffffffffffffffffffffff16815260200190815260200160002060020154818054600181600116156101000203166002900480601f016020809104026020016040519081016040528092919081815260200182805460018160011615610100020316600290048015610e495780601f10610e1e57610100808354040283529160200191610e49565b820191906000526020600020905b815481529060010190602001808311610e2c57829003601f168201915b505050505091509250925092509193909250565b6000809054906101000a900473ffffffffffffffffffffffffffffffffffffffff1673ffffffffffffffffffffffffffffffffffffffff163373ffffffffffffffffffffffffffffffffffffffff16141515610eb857600080fd5b6000809054906101000a900473ffffffffffffffffffffffffffffffffffffffff1673ffffffffffffffffffffffffffffffffffffffff167ff8df31144d9c2f0f6b59d69b8b98abd5459d07f2742c4df920b25aae33c6482060405160405180910390a260008060006101000a81548173ffffffffffffffffffffffffffffffffffffffff021916908373ffffffffffffffffffffffffffffffffffffffff160217905550565b6000809054906101000a900473ffffffffffffffffffffffffffffffffffffffff1681565b6000600280549050905090565b6000600480549050905090565b6000806002805490501415610fb65760009050611063565b8173ffffffffffffffffffffffffffffffffffffffff166002600160008573ffffffffffffffffffffffffffffffffffffffff1673ffffffffffffffffffffffffffffffffffffffff1681526020019081526020016000206002015481548110151561101e57fe5b9060005260206000200160009054906101000a900473ffffffffffffffffffffffffffffffffffffffff1673ffffffffffffffffffffffffffffffffffffffff161490505b919050565b6000809054906101000a900473ffffffffffffffffffffffffffffffffffffffff1673ffffffffffffffffffffffffffffffffffffffff163373ffffffffffffffffffffffffffffffffffffffff161415156110c357600080fd5b6110cc8161140a565b50565b6000823373ffffffffffffffffffffffffffffffffffffffff168173ffffffffffffffffffffffffffffffffffffffff1614151561110c57600080fd5b61111583610c94565b151561112057600080fd5b600160048481548110151561113157fe5b906000526020600020906004020160020160049054906101000a900463ffffffff160191508160048481548110151561116657fe5b906000526020600020906004020160020160046101000a81548163ffffffff021916908363ffffffff1602179055507fa6e9d96aeca73e2082656d55153203d9cbd1271c9702dedfb70e39662d7c448482604051808263ffffffff16815260200191505060405180910390a150505050565b600060606000600160006002868154811015156111f157fe5b9060005260206000200160009054906101000a900473ffffffffffffffffffffffffffffffffffffffff1673ffffffffffffffffffffffffffffffffffffffff1673ffffffffffffffffffffffffffffffffffffffff16815260200190815260200160002060000160009054906101000a900463ffffffff166001600060028781548110151561127d57fe5b9060005260206000200160009054906101000a900473ffffffffffffffffffffffffffffffffffffffff1673ffffffffffffffffffffffffffffffffffffffff1673ffffffffffffffffffffffffffffffffffffffff168152602001908152602001600020600101600160006002888154811015156112f857fe5b9060005260206000200160009054906101000a900473ffffffffffffffffffffffffffffffffffffffff1673ffffffffffffffffffffffffffffffffffffffff1673ffffffffffffffffffffffffffffffffffffffff16815260200190815260200160002060020154818054600181600116156101000203166002900480601f0160208091040260200160405190810160405280929190818152602001828054600181600116156101000203166002900480156113f65780601f106113cb576101008083540402835291602001916113f6565b820191906000526020600020905b8154815290600101906020018083116113d957829003601f168201915b505050505091509250925092509193909250565b600073ffffffffffffffffffffffffffffffffffffffff168173ffffffffffffffffffffffffffffffffffffffff161415151561144657600080fd5b8073ffffffffffffffffffffffffffffffffffffffff166000809054906101000a900473ffffffffffffffffffffffffffffffffffffffff1673ffffffffffffffffffffffffffffffffffffffff167f8be0079c531659141344cd1fd0a4f28419497f9722a3daafe3b4186f6b6457e060405160405180910390a3806000806101000a81548173ffffffffffffffffffffffffffffffffffffffff021916908373ffffffffffffffffffffffffffffffffffffffff16021790555050565b828054600181600116156101000203166002900490600052602060002090601f016020900481019282601f1061154557805160ff1916838001178555611573565b82800160010185558215611573579182015b82811115611572578251825591602001919060010190611557565b5b5090506115809190611584565b5090565b6115a691905b808211156115a257600081600090555060010161158a565b5090565b905600a165627a7a723058200d92918ce49fb154718988ac40974a20a974520a889222f55305b4fe1179427f0029",
  "source": "pragma solidity ^0.4.23;\r\nimport \"./BoardUser.sol\";\r\n\r\ncontract BoardPost is BoardUser {\r\n    event OnWritten(string _title, string _content);\r\n    event OnLiked(uint count);\r\n    event OnDisliked(uint count);\r\n    \r\n    struct Post {\r\n        string title;\r\n        string content;\r\n        uint32 like;\r\n        uint32 dislike;\r\n        uint timestamp;\r\n    }\r\n\r\n    mapping(address => uint[]) private userPosts;\r\n    Post[] private posts;\r\n\r\n    function getPostCount() public view returns(uint) {\r\n        return posts.length;\r\n    }\r\n\r\n    function getPost(uint _index) public view returns(string, string, uint32, uint32, uint) {\r\n        if(!existPost(_index)) revert();\r\n\r\n        return (\r\n            posts[_index].title,\r\n            posts[_index].content,\r\n            posts[_index].like,\r\n            posts[_index].dislike,\r\n            posts[_index].timestamp\r\n        );\r\n    }\r\n\r\n    function writePost(address _sender, string _title, string _content) public onlySender(_sender) {\r\n        uint postLength = posts.push(Post(_title, _content, 0, 0, now));\r\n        userPosts[_sender].push(postLength - 1);\r\n        emit OnWritten(_title, _content);\r\n    }\r\n\r\n    function likePost(address _sender,uint _index) public onlySender(_sender){\r\n        if(!existPost(_index)) revert();\r\n\r\n        uint32 count = posts[_index].like + 1;\r\n        posts[_index].like = count;\r\n        emit OnLiked(count);\r\n    }\r\n\r\n    function dislikePost(address _sender,uint _index) public onlySender(_sender){\r\n        if(!existPost(_index)) revert();\r\n\r\n        uint32 count = posts[_index].dislike + 1;\r\n        posts[_index].dislike = count;\r\n        emit OnDisliked(count);\r\n    }\r\n\r\n    function existPost(uint _postIndex) public view returns(bool isExist){\r\n        return (posts.length > 0 && posts.length > _postIndex) ? true : false;\r\n    }\r\n}",
  "sourcePath": "C:\\Users\\bkoh\\Documents\\git_projects\\etherboard\\contracts\\BoardPost.sol",
  "compiler": {
    "name": "solc",
    "version": "0.4.24+commit.e67f0147.Emscripten.clang"
  },
  "schemaVersion": "2.0.0",
  "updatedAt": "2018-06-19T01:43:42.197Z"
}