{
  "contractName": "EtherBoard",
  "abi": [
    {
      "constant": false,
      "inputs": [],
      "name": "renounceOwnership",
      "outputs": [],
      "payable": false,
      "stateMutability": "nonpayable",
      "type": "function"
    },
    {
      "constant": true,
      "inputs": [],
      "name": "owner",
      "outputs": [
        {
          "name": "",
          "type": "address"
        }
      ],
      "payable": false,
      "stateMutability": "view",
      "type": "function"
    },
    {
      "constant": true,
      "inputs": [
        {
          "name": "",
          "type": "uint256"
        }
      ],
      "name": "postIdToOwner",
      "outputs": [
        {
          "name": "",
          "type": "address"
        }
      ],
      "payable": false,
      "stateMutability": "view",
      "type": "function"
    },
    {
      "constant": false,
      "inputs": [
        {
          "name": "_newOwner",
          "type": "address"
        }
      ],
      "name": "transferOwnership",
      "outputs": [],
      "payable": false,
      "stateMutability": "nonpayable",
      "type": "function"
    },
    {
      "anonymous": false,
      "inputs": [
        {
          "indexed": false,
          "name": "_data",
          "type": "string"
        },
        {
          "indexed": false,
          "name": "_kind",
          "type": "uint8"
        }
      ],
      "name": "WriteCallback",
      "type": "event"
    },
    {
      "anonymous": false,
      "inputs": [
        {
          "indexed": true,
          "name": "previousOwner",
          "type": "address"
        }
      ],
      "name": "OwnershipRenounced",
      "type": "event"
    },
    {
      "anonymous": false,
      "inputs": [
        {
          "indexed": true,
          "name": "previousOwner",
          "type": "address"
        },
        {
          "indexed": true,
          "name": "newOwner",
          "type": "address"
        }
      ],
      "name": "OwnershipTransferred",
      "type": "event"
    },
    {
      "constant": true,
      "inputs": [],
      "name": "getPostsCount",
      "outputs": [
        {
          "name": "",
          "type": "uint256"
        }
      ],
      "payable": false,
      "stateMutability": "view",
      "type": "function"
    },
    {
      "constant": true,
      "inputs": [
        {
          "name": "_index",
          "type": "uint256"
        }
      ],
      "name": "getPost",
      "outputs": [
        {
          "name": "",
          "type": "string"
        },
        {
          "name": "",
          "type": "uint32"
        },
        {
          "name": "",
          "type": "uint32"
        },
        {
          "name": "",
          "type": "uint8"
        },
        {
          "name": "",
          "type": "uint256"
        }
      ],
      "payable": false,
      "stateMutability": "view",
      "type": "function"
    },
    {
      "constant": false,
      "inputs": [
        {
          "name": "_data",
          "type": "string"
        },
        {
          "name": "_kind",
          "type": "uint8"
        }
      ],
      "name": "writePost",
      "outputs": [],
      "payable": false,
      "stateMutability": "nonpayable",
      "type": "function"
    }
  ],
  "bytecode": "0x6080604052336000806101000a81548173ffffffffffffffffffffffffffffffffffffffff021916908373ffffffffffffffffffffffffffffffffffffffff1602179055506109f5806100536000396000f300608060405260043610610083576000357c0100000000000000000000000000000000000000000000000000000000900463ffffffff16806340731c2414610088578063715018a614610168578063834109761461017f57806383624882146101f55780638da5cb5b14610220578063932ad56114610277578063f2fde38b146102e4575b600080fd5b34801561009457600080fd5b506100b360048036038101908080359060200190929190505050610327565b60405180806020018663ffffffff1663ffffffff1681526020018563ffffffff1663ffffffff1681526020018460ff1660ff168152602001838152602001828103825287818151815260200191508051906020019080838360005b8381101561012957808201518184015260208101905061010e565b50505050905090810190601f1680156101565780820380516001836020036101000a031916815260200191505b50965050505050505060405180910390f35b34801561017457600080fd5b5061017d6104af565b005b34801561018b57600080fd5b506101f3600480360381019080803590602001908201803590602001908080601f0160208091040260200160405190810160405280939291908181526020018383808284378201915050505050509192919290803560ff1690602001909291905050506105b1565b005b34801561020157600080fd5b5061020a61075e565b6040518082815260200191505060405180910390f35b34801561022c57600080fd5b5061023561076b565b604051808273ffffffffffffffffffffffffffffffffffffffff1673ffffffffffffffffffffffffffffffffffffffff16815260200191505060405180910390f35b34801561028357600080fd5b506102a260048036038101908080359060200190929190505050610790565b604051808273ffffffffffffffffffffffffffffffffffffffff1673ffffffffffffffffffffffffffffffffffffffff16815260200191505060405180910390f35b3480156102f057600080fd5b50610325600480360381019080803573ffffffffffffffffffffffffffffffffffffffff1690602001909291905050506107c3565b005b606060008060008060028681548110151561033e57fe5b906000526020600020906003020160000160028781548110151561035e57fe5b906000526020600020906003020160010160009054906101000a900463ffffffff1660028881548110151561038f57fe5b906000526020600020906003020160010160049054906101000a900463ffffffff166002898154811015156103c057fe5b906000526020600020906003020160010160089054906101000a900460ff1660028a8154811015156103ee57fe5b906000526020600020906003020160020154848054600181600116156101000203166002900480601f0160208091040260200160405190810160405280929190818152602001828054600181600116156101000203166002900480156104955780601f1061046a57610100808354040283529160200191610495565b820191906000526020600020905b81548152906001019060200180831161047857829003601f168201915b505050505094509450945094509450945091939590929450565b6000809054906101000a900473ffffffffffffffffffffffffffffffffffffffff1673ffffffffffffffffffffffffffffffffffffffff163373ffffffffffffffffffffffffffffffffffffffff1614151561050a57600080fd5b6000809054906101000a900473ffffffffffffffffffffffffffffffffffffffff1673ffffffffffffffffffffffffffffffffffffffff167ff8df31144d9c2f0f6b59d69b8b98abd5459d07f2742c4df920b25aae33c6482060405160405180910390a260008060006101000a81548173ffffffffffffffffffffffffffffffffffffffff021916908373ffffffffffffffffffffffffffffffffffffffff160217905550565b600260a060405190810160405280848152602001600063ffffffff168152602001600063ffffffff1681526020018360ff16815260200142815250908060018154018082558091505090600182039060005260206000209060030201600090919290919091506000820151816000019080519060200190610633929190610924565b5060208201518160010160006101000a81548163ffffffff021916908363ffffffff16021790555060408201518160010160046101000a81548163ffffffff021916908363ffffffff16021790555060608201518160010160086101000a81548160ff021916908360ff160217905550608082015181600201555050507fc47dd6575e509d79a06c2fbfe5c1580981c6841e7a68666522ba1717761bcf60828260405180806020018360ff1660ff168152602001828103825284818151815260200191508051906020019080838360005b8381101561071f578082015181840152602081019050610704565b50505050905090810190601f16801561074c5780820380516001836020036101000a031916815260200191505b50935050505060405180910390a15050565b6000600280549050905090565b6000809054906101000a900473ffffffffffffffffffffffffffffffffffffffff1681565b60016020528060005260406000206000915054906101000a900473ffffffffffffffffffffffffffffffffffffffff1681565b6000809054906101000a900473ffffffffffffffffffffffffffffffffffffffff1673ffffffffffffffffffffffffffffffffffffffff163373ffffffffffffffffffffffffffffffffffffffff1614151561081e57600080fd5b6108278161082a565b50565b600073ffffffffffffffffffffffffffffffffffffffff168173ffffffffffffffffffffffffffffffffffffffff161415151561086657600080fd5b8073ffffffffffffffffffffffffffffffffffffffff166000809054906101000a900473ffffffffffffffffffffffffffffffffffffffff1673ffffffffffffffffffffffffffffffffffffffff167f8be0079c531659141344cd1fd0a4f28419497f9722a3daafe3b4186f6b6457e060405160405180910390a3806000806101000a81548173ffffffffffffffffffffffffffffffffffffffff021916908373ffffffffffffffffffffffffffffffffffffffff16021790555050565b828054600181600116156101000203166002900490600052602060002090601f016020900481019282601f1061096557805160ff1916838001178555610993565b82800160010185558215610993579182015b82811115610992578251825591602001919060010190610977565b5b5090506109a091906109a4565b5090565b6109c691905b808211156109c25760008160009055506001016109aa565b5090565b905600a165627a7a72305820886dc3d918888b50d8ff73c0ec14b5bd0e3e53dba78e5c9c55b14c317331206a0029",
  "source": "pragma solidity ^0.4.23;\r\n\r\nimport 'openzeppelin-solidity/contracts/ownership/Ownable.sol';\r\n\r\ncontract EtherBoard is Ownable {\r\n    mapping(uint => address) public postIdToOwner;\r\n    Post[] posts;\r\n\r\n    event WriteCallback(string _data, uint8 _kind);\r\n    struct Post{\r\n        string data;\r\n        uint32 like;\r\n        uint32 unlike;\r\n        uint8 kind;\r\n        uint timestamp;\r\n    }\r\n\r\n    function getPostsCount() public constant returns(uint) {\r\n        return posts.length;\r\n    }\r\n\r\n    function getPost(uint _index) public constant returns(string, uint32, uint32, uint8, uint) {\r\n        return (posts[_index].data, posts[_index].like, posts[_index].unlike, posts[_index].kind, posts[_index].timestamp);\r\n    }\r\n\r\n    function writePost(string _data, uint8 _kind) public {\r\n\r\n        posts.push(Post(_data, 0, 0, _kind, now));\r\n        emit WriteCallback(_data, _kind);\r\n    }\r\n}",
  "sourcePath": "C:\\Users\\bkoh\\Documents\\git_projects\\etherboard\\contracts\\EtherBoard.sol",
  "compiler": {
    "name": "solc",
    "version": "0.4.24+commit.e67f0147.Emscripten.clang"
  },
  "schemaVersion": "2.0.0",
  "updatedAt": "2018-06-14T17:22:13.621Z"
}