{
  "contractName": "EtherBoard",
  "abi": [
    {
      "constant": true,
      "inputs": [
        {
          "name": "",
          "type": "uint256"
        }
      ],
      "name": "posts",
      "outputs": [
        {
          "name": "title",
          "type": "string"
        },
        {
          "name": "data",
          "type": "string"
        },
        {
          "name": "like",
          "type": "uint32"
        },
        {
          "name": "unlike",
          "type": "uint32"
        },
        {
          "name": "kind",
          "type": "uint8"
        }
      ],
      "payable": false,
      "stateMutability": "view",
      "type": "function"
    },
    {
      "constant": false,
      "inputs": [],
      "name": "renounceOwnership",
      "outputs": [],
      "payable": false,
      "stateMutability": "nonpayable",
      "type": "function"
    },
    {
      "constant": true,
      "inputs": [],
      "name": "owner",
      "outputs": [
        {
          "name": "",
          "type": "address"
        }
      ],
      "payable": false,
      "stateMutability": "view",
      "type": "function"
    },
    {
      "constant": true,
      "inputs": [
        {
          "name": "",
          "type": "uint256"
        }
      ],
      "name": "postIdToOwner",
      "outputs": [
        {
          "name": "",
          "type": "address"
        }
      ],
      "payable": false,
      "stateMutability": "view",
      "type": "function"
    },
    {
      "constant": false,
      "inputs": [
        {
          "name": "_newOwner",
          "type": "address"
        }
      ],
      "name": "transferOwnership",
      "outputs": [],
      "payable": false,
      "stateMutability": "nonpayable",
      "type": "function"
    },
    {
      "anonymous": false,
      "inputs": [
        {
          "indexed": false,
          "name": "_title",
          "type": "string"
        },
        {
          "indexed": false,
          "name": "_data",
          "type": "string"
        },
        {
          "indexed": false,
          "name": "_kind",
          "type": "uint8"
        }
      ],
      "name": "WriteCallback",
      "type": "event"
    },
    {
      "anonymous": false,
      "inputs": [
        {
          "indexed": true,
          "name": "previousOwner",
          "type": "address"
        }
      ],
      "name": "OwnershipRenounced",
      "type": "event"
    },
    {
      "anonymous": false,
      "inputs": [
        {
          "indexed": true,
          "name": "previousOwner",
          "type": "address"
        },
        {
          "indexed": true,
          "name": "newOwner",
          "type": "address"
        }
      ],
      "name": "OwnershipTransferred",
      "type": "event"
    },
    {
      "constant": true,
      "inputs": [],
      "name": "getPostsCount",
      "outputs": [
        {
          "name": "",
          "type": "uint256"
        }
      ],
      "payable": false,
      "stateMutability": "view",
      "type": "function"
    },
    {
      "constant": true,
      "inputs": [
        {
          "name": "index",
          "type": "uint256"
        }
      ],
      "name": "getPost",
      "outputs": [
        {
          "name": "",
          "type": "string"
        },
        {
          "name": "",
          "type": "string"
        },
        {
          "name": "",
          "type": "uint32"
        },
        {
          "name": "",
          "type": "uint32"
        },
        {
          "name": "",
          "type": "uint8"
        }
      ],
      "payable": false,
      "stateMutability": "view",
      "type": "function"
    },
    {
      "constant": false,
      "inputs": [
        {
          "name": "_title",
          "type": "string"
        },
        {
          "name": "_data",
          "type": "string"
        },
        {
          "name": "_kind",
          "type": "uint8"
        }
      ],
      "name": "writePost",
      "outputs": [],
      "payable": false,
      "stateMutability": "nonpayable",
      "type": "function"
    }
  ],
  "bytecode": "0x6080604052336000806101000a81548173ffffffffffffffffffffffffffffffffffffffff021916908373ffffffffffffffffffffffffffffffffffffffff160217905550610eae806100536000396000f30060806040526004361061008e576000357c0100000000000000000000000000000000000000000000000000000000900463ffffffff1680630b1e7f831461009357806340731c24146101d8578063715018a61461031d57806383624882146103345780638d4aac4b1461035f5780638da5cb5b1461041b578063932ad56114610472578063f2fde38b146104df575b600080fd5b34801561009f57600080fd5b506100be60048036038101908080359060200190929190505050610522565b6040518080602001806020018663ffffffff1663ffffffff1681526020018563ffffffff1663ffffffff1681526020018460ff1660ff168152602001838103835288818151815260200191508051906020019080838360005b83811015610132578082015181840152602081019050610117565b50505050905090810190601f16801561015f5780820380516001836020036101000a031916815260200191505b50838103825287818151815260200191508051906020019080838360005b8381101561019857808201518184015260208101905061017d565b50505050905090810190601f1680156101c55780820380516001836020036101000a031916815260200191505b5097505050505050505060405180910390f35b3480156101e457600080fd5b50610203600480360381019080803590602001909291905050506106c4565b6040518080602001806020018663ffffffff1663ffffffff1681526020018563ffffffff1663ffffffff1681526020018460ff1660ff168152602001838103835288818151815260200191508051906020019080838360005b8381101561027757808201518184015260208101905061025c565b50505050905090810190601f1680156102a45780820380516001836020036101000a031916815260200191505b50838103825287818151815260200191508051906020019080838360005b838110156102dd5780820151818401526020810190506102c2565b50505050905090810190601f16801561030a5780820380516001836020036101000a031916815260200191505b5097505050505050505060405180910390f35b34801561032957600080fd5b506103326108e7565b005b34801561034057600080fd5b506103496109e9565b6040518082815260200191505060405180910390f35b34801561036b57600080fd5b50610419600480360381019080803590602001908201803590602001908080601f0160208091040260200160405190810160405280939291908181526020018383808284378201915050505050509192919290803590602001908201803590602001908080601f0160208091040260200160405190810160405280939291908181526020018383808284378201915050505050509192919290803560ff1690602001909291905050506109f6565b005b34801561042757600080fd5b50610430610c24565b604051808273ffffffffffffffffffffffffffffffffffffffff1673ffffffffffffffffffffffffffffffffffffffff16815260200191505060405180910390f35b34801561047e57600080fd5b5061049d60048036038101908080359060200190929190505050610c49565b604051808273ffffffffffffffffffffffffffffffffffffffff1673ffffffffffffffffffffffffffffffffffffffff16815260200191505060405180910390f35b3480156104eb57600080fd5b50610520600480360381019080803573ffffffffffffffffffffffffffffffffffffffff169060200190929190505050610c7c565b005b60028181548110151561053157fe5b9060005260206000209060030201600091509050806000018054600181600116156101000203166002900480601f0160208091040260200160405190810160405280929190818152602001828054600181600116156101000203166002900480156105dd5780601f106105b2576101008083540402835291602001916105dd565b820191906000526020600020905b8154815290600101906020018083116105c057829003601f168201915b505050505090806001018054600181600116156101000203166002900480601f01602080910402602001604051908101604052809291908181526020018280546001816001161561010002031660029004801561067b5780601f106106505761010080835404028352916020019161067b565b820191906000526020600020905b81548152906001019060200180831161065e57829003601f168201915b5050505050908060020160009054906101000a900463ffffffff16908060020160049054906101000a900463ffffffff16908060020160089054906101000a900460ff16905085565b60608060008060006002868154811015156106db57fe5b90600052602060002090600302016000016002878154811015156106fb57fe5b906000526020600020906003020160010160028881548110151561071b57fe5b906000526020600020906003020160020160009054906101000a900463ffffffff1660028981548110151561074c57fe5b906000526020600020906003020160020160049054906101000a900463ffffffff1660028a81548110151561077d57fe5b906000526020600020906003020160020160089054906101000a900460ff16848054600181600116156101000203166002900480601f0160208091040260200160405190810160405280929190818152602001828054600181600116156101000203166002900480156108315780601f1061080657610100808354040283529160200191610831565b820191906000526020600020905b81548152906001019060200180831161081457829003601f168201915b50505050509450838054600181600116156101000203166002900480601f0160208091040260200160405190810160405280929190818152602001828054600181600116156101000203166002900480156108cd5780601f106108a2576101008083540402835291602001916108cd565b820191906000526020600020905b8154815290600101906020018083116108b057829003601f168201915b505050505093509450945094509450945091939590929450565b6000809054906101000a900473ffffffffffffffffffffffffffffffffffffffff1673ffffffffffffffffffffffffffffffffffffffff163373ffffffffffffffffffffffffffffffffffffffff1614151561094257600080fd5b6000809054906101000a900473ffffffffffffffffffffffffffffffffffffffff1673ffffffffffffffffffffffffffffffffffffffff167ff8df31144d9c2f0f6b59d69b8b98abd5459d07f2742c4df920b25aae33c6482060405160405180910390a260008060006101000a81548173ffffffffffffffffffffffffffffffffffffffff021916908373ffffffffffffffffffffffffffffffffffffffff160217905550565b6000600280549050905090565b600260a060405190810160405280858152602001848152602001600063ffffffff168152602001600063ffffffff1681526020018360ff16815250908060018154018082558091505090600182039060005260206000209060030201600090919290919091506000820151816000019080519060200190610a78929190610ddd565b506020820151816001019080519060200190610a95929190610ddd565b5060408201518160020160006101000a81548163ffffffff021916908363ffffffff16021790555060608201518160020160046101000a81548163ffffffff021916908363ffffffff16021790555060808201518160020160086101000a81548160ff021916908360ff1602179055505050507f077f2597630bf2f77c96ae62b1d68fa4abbd51129bc80bf8c7483b21735774528383836040518080602001806020018460ff1660ff168152602001838103835286818151815260200191508051906020019080838360005b83811015610b7c578082015181840152602081019050610b61565b50505050905090810190601f168015610ba95780820380516001836020036101000a031916815260200191505b50838103825285818151815260200191508051906020019080838360005b83811015610be2578082015181840152602081019050610bc7565b50505050905090810190601f168015610c0f5780820380516001836020036101000a031916815260200191505b509550505050505060405180910390a1505050565b6000809054906101000a900473ffffffffffffffffffffffffffffffffffffffff1681565b60016020528060005260406000206000915054906101000a900473ffffffffffffffffffffffffffffffffffffffff1681565b6000809054906101000a900473ffffffffffffffffffffffffffffffffffffffff1673ffffffffffffffffffffffffffffffffffffffff163373ffffffffffffffffffffffffffffffffffffffff16141515610cd757600080fd5b610ce081610ce3565b50565b600073ffffffffffffffffffffffffffffffffffffffff168173ffffffffffffffffffffffffffffffffffffffff1614151515610d1f57600080fd5b8073ffffffffffffffffffffffffffffffffffffffff166000809054906101000a900473ffffffffffffffffffffffffffffffffffffffff1673ffffffffffffffffffffffffffffffffffffffff167f8be0079c531659141344cd1fd0a4f28419497f9722a3daafe3b4186f6b6457e060405160405180910390a3806000806101000a81548173ffffffffffffffffffffffffffffffffffffffff021916908373ffffffffffffffffffffffffffffffffffffffff16021790555050565b828054600181600116156101000203166002900490600052602060002090601f016020900481019282601f10610e1e57805160ff1916838001178555610e4c565b82800160010185558215610e4c579182015b82811115610e4b578251825591602001919060010190610e30565b5b509050610e599190610e5d565b5090565b610e7f91905b80821115610e7b576000816000905550600101610e63565b5090565b905600a165627a7a7230582069d07ac369ae0dd098367d60af3f429f178f2a93ec9d8763a6833f8a6d02d55a0029",
  "source": "pragma solidity ^0.4.23;\r\nimport \"openzeppelin-solidity/contracts/ownership/Ownable.sol\";\r\n\r\n\r\ncontract EtherBoard is Ownable {\r\n    mapping(uint => address) public postIdToOwner;\r\n    Post[] public posts;\r\n \r\n    event WriteCallback(string _title, string _data, uint8 _kind);\r\n    \r\n    struct Post {\r\n        string title;\r\n        string data;\r\n        uint32 like;\r\n        uint32 unlike;\r\n        uint8 kind;\r\n    }\r\n\r\n    function getPostsCount() public view returns(uint) {\r\n        return posts.length;\r\n    }\r\n\r\n    function getPost(uint index) public view returns(string, string, uint32, uint32, uint8) {\r\n        return (\r\n            posts[index].title,\r\n            posts[index].data,\r\n            posts[index].like,\r\n            posts[index].unlike,\r\n            posts[index].kind\r\n        );\r\n    }\r\n\r\n    function writePost(string _title, string _data, uint8 _kind) public {\r\n\r\n        posts.push(Post(_title, _data, 0, 0, _kind));\r\n        emit WriteCallback(_title, _data, _kind);\r\n    }\r\n}",
  "sourcePath": "C:\\Users\\bkoh\\Documents\\git_projects\\etherboard\\contracts\\EtherBoard.sol",
  "compiler": {
    "name": "solc",
    "version": "0.4.24+commit.e67f0147.Emscripten.clang"
  },
  "schemaVersion": "2.0.0",
  "updatedAt": "2018-06-15T10:04:26.234Z"
}